:100000000C9463000C948B000C948B000C948B006C
:100010000C948B000C948B000C948B000C948B0034
:100020000C948B000C948B000C948B000C948B0024
:100030000C948B000C948B000C948B000C948B0014
:100040000C94AE020C948B000C9447060C94210681
:100050000C948B000C948B000C948B000C948B00F4
:100060000C948B000C948B000000000025002800ED
:100070002B0000000000240027002A0000000000E0
:1000800023002600290004040404040404040202DA
:100090000202020203030303030301020408102007
:1000A0004080010204081020010204081020000012
:1000B0000008000201000003040700000000000027
:1000C0000000780C430911241FBECFEFD8E0DEBF3B
:1000D000CDBF22E0A6E9B1E001C01D92A237B20770
:1000E000E1F711E0A0E0B1E0ECE7F2E202C0059038
:1000F0000D92A639B107D9F710E0C2E6D0E004C0EE
:100100002197FE010E94270FC136D107C9F70E942F
:100110004F090C9431110C940000FC01538D448D57
:10012000252F30E0842F90E0821B930B541710F0A2
:10013000CF96089501970895FC01918D828D9817AF
:1001400061F0828DDF01A80FB11D5D968C91928DBB
:100150009F5F9F73928F90E008958FEF9FEF0895B8
:10016000FC01918D828D981731F0828DE80FF11D81
:10017000858D90E008958FEF9FEF0895FC01918D9C
:10018000228D892F90E0805C9F4F821B91098F7395
:100190009927089580E090E0892B29F00E941706A6
:1001A00081110C94000008953FB7F89480919B0151
:1001B00090919C01A0919D01B0919E0126B5A89BB4
:1001C00005C02F3F19F00196A11DB11D3FBFBA2FE9
:1001D000A92F982F8827820F911DA11DB11DBC0149
:1001E000CD0142E0660F771F881F991F4A95D1F70E
:1001F0000895BC016E5F7F4FDC01ED91FC91019091
:10020000F081E02D40E0099591E0811190E0892F87
:10021000089580E090E008950E941411FC01848DFF
:10022000DF01A80FB11DA35ABF4F2C91848D90E020
:1002300001968F739927848FA689B7892C93A089FB
:10024000B1898C91837080648C93938D848D981385
:1002500006C00288F389E02D80818F7D8083089518
:10026000EF92FF920F931F93CF93DF93EC0181E006
:10027000888F9B8D8C8D981305C0E889F9898081C2
:1002800085FD26C0F62E0B8D10E00F5F1F4F0F73FC
:100290001127E02E8C8DE8120CC00FB607FCFACFA8
:1002A000E889F989808185FFF5CFCE010E940E0192
:1002B000F1CF8B8DFE01E80FF11DE35AFF4FF08265
:1002C0009FB7F8940B8FEA89FB89808180620AC00E
:1002D0009FB7F894EE89FF896083E889F989808166
:1002E0008370806480839FBF81E090E0DF91CF9135
:1002F0001F910F91FF90EF900895CF93DF93EC0142
:10030000888D8823C9F0EA89FB89808185FD05C035
:10031000A889B9898C9186FD0FC00FB607FCF5CF6F
:10032000808185FFF2CFA889B9898C9185FFEDCFB7
:10033000CE010E940E01E7CFDF91CF910895833067
:1003400081F028F4813099F08230A1F0089587304F
:10035000A9F08830B9F08430D1F4809180008F7D8D
:1003600003C0809180008F7780938000089584B5CA
:100370008F7702C084B58F7D84BD08958091B000D1
:100380008F7703C08091B0008F7D8093B000089577
:100390001F93CF93DF93282F30E0F901E255FF4FF1
:1003A0008491F901E656FF4FD491F901EA57FF4FC6
:1003B000C491CC23C1F0162F81110E949F01EC2F14
:1003C000F0E0EE0FFF1FE859FF4FA591B4919FB7E2
:1003D000F894111104C08C91D095D82302C0EC91EF
:1003E000DE2BDC939FBFDF91CF911F910895CF93B8
:1003F000DF9390E0FC01E656FF4F2491FC01EA57A1
:10040000FF4F8491882361F190E0880F991FFC01D0
:10041000EE58FF4FC591D491FC01E859FF4FA591CB
:10042000B491611109C09FB7F89488812095822307
:100430008883EC912E230BC0623061F49FB7F8944F
:100440008881322F309583238883EC912E2B2C9337
:100450009FBF06C08FB7F894E8812E2B28838FBFEB
:10046000DF91CF9108950F931F93CF93DF93EC010A
:10047000162F022F642F8F810E94C80161E08F81A7
:100480000E94F70161E089850E94F70161E08A8599
:100490000E94F70161E08B850E94F70161E08C8585
:1004A0000E94F70101110AC0612F70E084E0759588
:1004B00067958A95E1F7CE010E94CB06612F6F7098
:1004C000CE01DF91CF911F910F910C94CB06CF936A
:1004D000DF93EC0160E088850E94C80161E08885B7
:1004E000DF91CF910C94F7018F929F92AF92BF92C0
:1004F000CF92DF92EF92FF926B017C010E94D400B9
:100500004B015C01C114D104E104F104F1F00E943B
:10051000D400DC01CB0188199909AA09BB09883EDE
:100520009340A105B10570F321E0C21AD108E1089A
:10053000F10888EE880E83E0981EA11CB11CC1143E
:10054000D104E104F10419F7DDCFFF90EF90DF90C3
:10055000CF90BF90AF909F908F9008951F920F9271
:100560000FB60F9211242F933F938F939F93AF93C6
:10057000BF938091970190919801A0919901B091BA
:100580009A013091960123E0230F2D3720F4019634
:10059000A11DB11D05C026E8230F0296A11DB11DA6
:1005A000209396018093970190939801A0939901CD
:1005B000B0939A0180919B0190919C01A0919D0123
:1005C000B0919E010196A11DB11D80939B01909356
:1005D0009C01A0939D01B0939E01BF91AF919F910B
:1005E0008F913F912F910F900FBE0F901F901895F4
:1005F00008958EBD00000DB407FEFDCF8EB50895A1
:100600008CBD9DBD08951F93CF93DF93EC01162FF2
:1006100083E590E00E94000360E08E850E94C8019F
:10062000812F80680E94F90280E00E94F902182F51
:1006300061E08E850E94C801812FDF91CF911F91CB
:1006400008950F931F93CF93DF93EC01062F142F80
:1006500083E590E00E94000360E08E850E94C8015F
:10066000802F0E94F902812F0E94F90261E08E859D
:10067000DF91CF911F910F910C94C8018F929F929F
:10068000AF92CF92EF92FF920F931F93CF93DF938E
:1006900000D000D01F92CDB7DEB74C0182E08D8331
:1006A00040E064E2C4010E94210340E066E2C4012C
:1006B0000E94210346E268E4C4010E94210386E20D
:1006C0008B838D81823040F16CE1C4010E94030371
:1006D000482F4F776CE1C4010E94210387E08C838F
:1006E000A12CC12CCE0104967C018E010B5F1F4F03
:1006F0009E012F5F3F4F41E0BE016D5F7F4FC40100
:100700000E947D0781110BC08D81823039F481E018
:100710009C81911104C008C084E001C081E091E097
:10072000823019F090E001C091E0892F0F900F9076
:100730000F900F900F90DF91CF911F910F91FF902D
:10074000EF90CF90AF909F908F900895CF92DF92CF
:10075000EF92FF920F931F93CF93DF93EC016B0106
:10076000142F790140E062E00E94210344E06AE036
:10077000CE010E94210340E864E1CE010E942103E2
:10078000A601612FCE010E944B0743E062E0CE013B
:100790000E94210308E813E16AE0CE010E940303EE
:1007A00082FF13C040E062E0CE010E94210364E4B6
:1007B000CE010E940303F701808362E4CE010E9410
:1007C0000303F701818380E004C00150110921F780
:1007D00083E0DF91CF911F910F91FF90EF90DF9019
:1007E000CF9008952F923F924F925F926F927F9297
:1007F0008F929F92AF92BF92CF92DF92EF92FF9231
:100800000F931F93CF93DF93CDB7DEB72C970FB61F
:10081000F894DEBF0FBECDBF413508F00BC1342EBA
:100820003B014C016CE10E940303482F4F776CE1C0
:10083000C4010E9421032224239432E0231691F064
:1008400083E02816E1F091E02912F6C083E989835C
:100850003320D1F081E0F3019081953008F480E0FD
:10086000B12C17C0F5E9F983332081F081E0F30161
:100870009081983008F480E043E0B42E0AC087E904
:10088000898336E0B32E04C0B12C02C023E0B22E1F
:1008900080E0D32CF8E0BF9ED0181124D7FCD12CD7
:1008A000882321F098E89B8333E001C032E021E007
:1008B0009D2D977009F420E09D2D95959595959522
:1008C000290F31F4882309F492C038E0D30E8FC089
:1008D000811102C094E001C093E0291708F4922F1F
:1008E000EB2DF0E03196E60DF71D232F4191A1E0AD
:1008F000B0E0AC0FBD1FA20FB11D4C932F5F422F74
:10090000431B491798F3DECF8111DEC09FE19D158F
:100910000CF494C080E2D82E90E79A839B818C815E
:1009200089279D8189279E8189278F839E01285F42
:100930003F4F47E0BE016F5F7F4FC4010E94A60397
:100940008111A3C01A86E3E0EB87CE0107962C0144
:1009500099E09C87CA844C2D4295407F4C0D6AE1FA
:10096000C4010E942103A12CCE010A967C018E01B4
:10097000055F1F4F92014C85BE016F5F7F4FC40121
:100980000E947D07182F823009F0BECF6CE1C401B0
:100990000E94030385FD98C08F7109F480E2282F1F
:1009A00030E04D2DDD0C550B421753070CF044C0C1
:1009B000D82E85958595859591E0980F422F4770A3
:1009C00081E009F480E0890FE1E0F0E0EC0FFD1F29
:1009D000E80FF11D215031092770332781E090E0A5
:1009E00001C0880F2A95EAF79081892B80838FE1D7
:1009F0008D150CF491CF9D2D97709A878D2D85952F
:100A0000859585958E5F292FE0E18E9F200D11241D
:100A10002A8321E0911101C020E0280F2C87442473
:100A20004394512C4C0E5D1E480E511CF9E0F81BEE
:100A3000FB8790CF16E048C015E046C08B81883810
:100A400009F43FC082E094E0EB2DF0E03196E60D32
:100A5000F71D980FA1E0B0E0AC0FBD1FA80FB11DAE
:100A60002C9121938F5F8913F5CF8B85833029F5E6
:100A70008A85811122C09E012D5F3F4F41E0B20166
:100A8000C4010E94A603882311F0182F1DC09B816A
:100A9000F2018181981313C09C81828198130FC049
:100AA000808182FF02C02394C8CEF3018387822D08
:100AB000880F820D8F5F808307C011E005C017E0AB
:100AC00003C083E093E0C0CF812F2C960FB6F8943B
:100AD000DEBF0FBECDBFDF91CF911F910F91FF9071
:100AE000EF90DF90CF90BF90AF909F908F907F90CE
:100AF0006F905F904F903F902F90089520E040E0DE
:100B00000C948205FF920F931F93CF93DF93EC0118
:100B1000162F042FF22E8C8181114CC081E08C8322
:100B2000E881F9810084F185E02DCE01099521E06D
:100B300040E063E0CE010E9482058FE991E40197D5
:100B4000F1F700C0000021E040E063E0CE010E9428
:100B5000820587E592E00197F1F700C0000021E0EF
:100B600040E063E0CE010E94820521E040E062E0C7
:100B7000CE010E94820568E2CE010E947E0568E0F7
:100B8000CE010E947E051D8261E0CE010E947E059D
:100B90008FE39FE10197F1F700C0000066E0CE010E
:100BA0000E947E0582E08E836CE0CE010E947E056D
:100BB00084E08D83E881F9810284F385E02D2F2D77
:100BC000402F612FCE01099595EC9A95F1F7000021
:100BD000DF91CF911F910F91FF90089520E041E0A8
:100BE0000E94820581E090E00895CF92DF92EF921B
:100BF000FF920F931F93CF93DF937C018A01EB0148
:100C00006B01C40ED51ECC15DD0539F0699120E0CD
:100C100041E0C7010E948205F6CFC801DF91CF9164
:100C20001F910F91FF90EF90DF90CF90089580EA91
:100C300091E00E94BE0021E0892B09F420E0822F80
:100C400008951F920F920FB60F9211242F933F9386
:100C50004F935F936F937F938F939F93AF93BF93C4
:100C6000EF93FF9380EA91E00E940E01FF91EF91D4
:100C7000BF91AF919F918F917F916F915F914F91B4
:100C80003F912F910F900FBE0F901F9018951F92BC
:100C90000F920FB60F9211242F938F939F93EF9380
:100CA000FF93E091B001F091B1018081E091B60134
:100CB000F091B70182FD12C090818091B9018F5FE0
:100CC0008F732091BA01821751F0E091B901F0E0E1
:100CD000E056FE4F958F8093B90101C08081FF914E
:100CE000EF919F918F912F910F900FBE0F901F90BA
:100CF00018950895CF92DF92EF92FF920F931F9372
:100D0000CF93DF936C017A018B01C0E0D0E0CE1568
:100D1000DF0581F0D8016D918D01D601ED91FC9137
:100D20000190F081E02DC6010995892B11F02196E3
:100D3000EECF7E01C701DF91CF911F910F91FF9000
:100D4000EF90DF90CF9008950F931F93CF93DF9391
:100D5000EC0188819981009729F02A813B8126172F
:100D6000370788F48B016F5F7F4F0E944E1000970A
:100D700061F0998388831B830A832C813D81232B17
:100D800011F4FC01108281E001C080E0DF91CF917D
:100D90001F910F9108950F931F93CF93DF938C01B1
:100DA000C62F6170FC0181850E94C801D0E0BE01A0
:100DB000759567956170F80182850E94C801BE0132
:100DC00075956795759567956170F80183850E94A3
:100DD000C80123E0D595C7952A95E1F76C2F61707E
:100DE000F80184850E94C80161E0F80180850E94B5
:100DF000C801F5E0FA95F1F7000060E0F8018085A0
:100E00000E94C801F5E0FA95F1F70000DF91CF915B
:100E10001F910F910895EF92FF920F931F93CF931D
:100E2000DF936115710511F480E01CC04115510577
:100E3000C1F07B01EC018C819D818A01080F191F93
:100E4000B801CE010E94A406882371F3288139815C
:100E50008C819D81B701820F931F0E942A111D83EF
:100E60000C8381E0DF91CF911F910F91FF90EF9064
:100E70000895009769F0FC0101900020E9F731978F
:100E8000AF01481B590BBC0180EA91E00C947A0633
:100E900080E090E00895DF92EF92FF920F931F930E
:100EA000CF93DF938C01F62ED42EE52E83E590E0D0
:100EB0000E94000360E0F80186850E94C80182E17B
:100EC0000E94F902CD2DDE2DCE018F0D911D7C01EA
:100ED000EC16FD0621F089910E94F902F9CF61E03C
:100EE000F80186850E94C801DF91CF911F910F9173
:100EF000FF90EF90DF900C94F8024F925F926F9208
:100F00007F928F929F92AF92BF92CF92DF92EF9299
:100F1000FF920F931F93CF93DF9300D0CDB7DEB72F
:100F20004C012B01D42E3901E114F10419F0F70121
:100F3000408101C040E0B42EF0E1CF9EB00C1124FE
:100F400040E062E0C4010E9421034FE768E0C40171
:100F50000E94210340E864E1C4010E942103A20130
:100F60006D2DC4010E944B074B2D6AE1C4010E9404
:100F700021034CE062E0C4010E9421036AE1C40144
:100F80000E940303482F40686AE1C4010E942103C4
:100F900080ED482E87E0582E68E0C4010E940303CC
:100FA000982F907341F480FD04C081E0481A5108E5
:100FB00099F783E0A0C06CE0C4010E940303D82E1F
:100FC000837109F095C06114710409F45AC00115C8
:100FD000110509F456C064E1C4010E940303B82E50
:100FE000F80180818B1508F47DC0B082BB20F1F13F
:100FF00083E590E00E94000360E0F40186850E9492
:10100000C801BA9482E90E94F902CC20A9F08FEFBE
:1010100090E02C0101C0440CCA94EAF782E90E94D6
:10102000F902242D2095F301908192238421892BAC
:101030008083CC24C39401C0C12C4C2C512C460C71
:10104000571CCB1438F482E90E94F902F201808324
:10105000C394F3CF80E00E94F902F201808361E043
:10106000F40186850E94C8010E94F80268E1C4016B
:101070000E9403038770E114F10421F0F7018083DB
:1010800001C080E0D3FC30C06114710479F1011516
:10109000110561F1AA2051F1F8014081413021F49C
:1010A000843041F58FEF27C0423020F1811122C0FA
:1010B00042509E012F5F3F4FB301C4010E94A6031F
:1010C000811119C0F8018081680E711CF3013297FB
:1010D0009081898198130EC0319690818A819813EE
:1010E00009C004C084E007C082E005C080E003C0FE
:1010F00081E001C087E00F900F90DF91CF911F91A9
:101100000F91FF90EF90DF90CF90BF90AF909F90A6
:101110008F907F906F905F904F9008950F931F93E3
:10112000CF93DF938C01EB01FC01808191810097CB
:1011300039F06881798161157105A1F40E94C50FAC
:1011400088819981F801918380838A819B8193832F
:1011500082838C819D8195838483198218821B826E
:101160001A820FC0F801428153812C813D814217C0
:10117000530720F30E942A118C819D81F8019583E9
:1011800084831D821C82DF91CF911F910F9108955E
:10119000CF93DF93EC0188819981009711F00E9431
:1011A000C50F198218821D821C821B821A82DF9150
:1011B000CF910895EF92FF920F931F93CF93DF93F8
:1011C000EC017B018A01BA010E94A406811104C0CE
:1011D000CE010E94C80807C01D830C83B701888117
:1011E00099810E942A11CE01DF91CF911F910F9119
:1011F000FF90EF900895CF93DF93EC016115710597
:1012000059F0FB0101900020E9F73197AF01461B2F
:10121000570B0E94DA0802C00E94C808CE01DF9175
:10122000CF910895CF93DF93EC01FB0186179707C9
:1012300061F0608171816115710529F044815581EA
:101240000E94DA0802C00E94C808CE01DF91CF9147
:101250000895FC01808191810C94C50FFC011182DD
:10126000108213821282158214826115710551F069
:10127000FB0101900020E9F73197AF01461B570BA6
:101280000C94DA0808958CE592E00E94290982E620
:1012900092E00E94290988E692E00C942909CF93F4
:1012A000DF93CDB7DEB7E3970FB6F894DEBF0FBE7E
:1012B000CDBF789484B5826084BD84B5816084BDDF
:1012C00085B5826085BD85B5816085BD80916E00E4
:1012D000816080936E001092810080918100826015
:1012E0008093810080918100816080938100809152
:1012F00080008160809380008091B1008460809341
:10130000B1008091B00081608093B00080917A003C
:10131000846080937A0080917A00826080937A0062
:1013200080917A00816080937A0080917A00806851
:1013300080937A001092C100E091B001F091B10168
:1013400082E08083E091AC01F091AD011082E091E8
:10135000AE01F091AF018FEC80831092B801E09163
:10136000B401F091B50186E08083E091B201F09183
:10137000B301808180618083E091B201F091B3017B
:10138000808188608083E091B201F091B301808117
:1013900080688083E091B201F091B30180818F7DFC
:1013A00080831FB7F89480919F01811127C0E0E9E5
:1013B000F0E08491E4EAF0E09491E82FF0E0EE0FA1
:1013C000FF1FEE58FF4FA591B491EC91E92321F452
:1013D00061E08AE00E94C80161E08AE00E94F701B2
:1013E0008CB580618CBD8CB580648CBD61E08DE076
:1013F0000E94F70161E08BE00E94F70180919F015C
:101400008F5F80939F011FBF61E0809158020E940F
:10141000F70161E0809158020E94C8018091590251
:101420008F3F41F44FE062E08AE492E00E942103A2
:1014300013E025C060E00E94F7012091590230E0DE
:10144000F901E255FF4F8491F901E656FF4F0491EF
:10145000F901EA57FF4F14911123F9F081110E940D
:101460009F01E12FF0E0EE0FFF1FE458FF4FA59121
:10147000B491EC91E02389F0D5CF115039F162E3BA
:1014800070E080E090E00E94740262E08AE492E002
:101490000E94030384FF1AC0F0CF61E080915902DB
:1014A0000E94F70160E0809159020E94C80183E028
:1014B00090E00197F1F761E0809159020E94C80124
:1014C00062E370E080E090E00E94740240E064E239
:1014D0008AE492E00E94210340E066E28AE492E01E
:1014E0000E94210346E268E48AE492E00E9421031C
:1014F00040E864E58AE492E00E94210349EA66E557
:101500008AE492E00E94210343E068E58AE492E0E5
:101510000E94210348EE6AE58AE492E00E942103DA
:1015200040E46AE28AE492E00E9421034DE362E231
:101530008AE492E00E94210368E28AE492E00E9439
:101540000303982F9370933039F0482F436068E27B
:101550008AE492E00E9421038BE391E00E94390724
:101560008CE591E00E9439078E010F5F1F4F40907C
:1015700006015090070160900801709009018AE40B
:1015800092E00E943E038823C9F08AE492E00E9420
:10159000F900811116C012C0CE0182960E9429095D
:1015A000CE0188960E94290968EB7BE080E090E0FC
:1015B0000E947402CE018E960E9429090E94CA00E0
:1015C000DECF19A280E388A381E38F8FCE014F96EF
:1015D0000E9439078CE591E00E9439076EE571E0C1
:1015E000CE018E960E942E09F12C80914C02F816A5
:1015F00008F045C08F2D90E09C01235C3D4F6901B0
:10160000F9018089803118F466E371E002C069E372
:1016100071E0C8010E942E094D815E8169817A8145
:10162000CE018E960E940B07C8010E942909F6017F
:1016300080891BA21AA21DA21CA21FA21EA240E109
:10164000B80190E00E94D70CF80101900020E9F762
:101650003197AF01401B510BB801CE0182960E9419
:10166000DA084EA15FA16AA17BA1CE018E960E94ED
:101670000B07CE0182960E942909F394B6CFEEA4FF
:10168000FFA4E114F10469F0F7018081882349F097
:10169000082E000C990B0E941911F70181937F010C
:1016A000F3CF4AA95BA96EA57FA580EA91E00E94CD
:1016B0007A068CE591E00E94390719A618A61BA6A8
:1016C0001AA61DA61CA6BE01625D7F4FCE0188969C
:1016D0000E94120961E08DE392E00E947E058FE393
:1016E0009FE10197F1F700C000001A8219821C8265
:1016F0001B821E821D82BE01685D7F4FC8010E9451
:101700001209D0905A02C0905B02ED80FE80C801A1
:101710000E942909DC9CC00111248E159F0508F444
:101720003FCF6EE571E0CE0182960E942E09D12C4A
:10173000312C2CA53DA5C0905B028C2D90E0281784
:10174000390708F442C0ED2CF12C8E0D9F1D48A5E1
:1017500059A58217930728F0CA94C7018C0D911DD3
:10176000F8CF41155105C1F3FA01E80FF91F808147
:10177000803291F76EE571E0C8010E942E098CA5B8
:101780009DA50097B9F0EC0CF11C8E159F0508F48F
:101790007C01E8A5F9A5EE0DFF1DA080108268A5CB
:1017A00079A5C8010E94FB0888A599A5FC01EE0D4A
:1017B000FF1DA082B801CE0182960E948E08C8014A
:1017C0000E942909D394DC0C0BC0BE01685D7F4FD9
:1017D000CE0182960E9412098CA59DA50196D80E75
:1017E000CC24C394C30C60915B0270E0615071091A
:1017F000072E000C880B990B0E94030D20E030E0AF
:1018000040E05FE30E943E0D4B015C016EA17FA1B1
:101810006150710980E090E00E94010D20E030E00D
:1018200040E05FE30E943E0D9B01AC01C501B401A5
:101830000E94330E0E94A00E49825A826B827C82E3
:10184000232D243008F023E07801E20EF11C0E94E1
:10185000B70EF7018081680F8DE392E00E947E054C
:10186000F5ECFA95F1F700004EA15FA16AA17BA10A
:101870008DE392E00E94F5058D2C912CACA4BDA4C3
:10188000A814B90428F09A2D8B2D5401892E982E76
:101890006EE571E0C8010E942E09ECA4FDA4AE140F
:1018A000BF04B8F48E149F0408F47401E8A5F9A5E8
:1018B000EE0DFF1D9080108268A579A56A0D7B1D35
:1018C000C8010E94FB0888A599A5FC01EE0DFF1D2B
:1018D0009082B801CE0188960E948E08C8010E94AD
:1018E00029098CA59DA5892B09F456CE3C2C21CF26
:1018F000E0EAF1E01382128288EE93E0A0E0B0E02B
:1019000084839583A683B7838EE091E0918380835F
:1019100085EC90E09587848784EC90E097878687B4
:1019200080EC90E0918B808B81EC90E0938B828BAC
:1019300082EC90E0958B848B86EC90E0978B868B85
:10194000118E128E138E148E6FE571E088E692E090
:101950000E942E0962E771E082E692E00E942E0961
:1019600063E871E08CE592E00E942E09EDE3F2E07D
:101970001382128214828AE291E09183808387E04D
:10198000878386E0808785E0818784E0828783E0A3
:10199000838782E0848720E231E0368725879AE0DA
:1019A000938F99E0948F858F80E1868F0895BB2770
:1019B000FB015527AA27880F991FAA1FA41710F00B
:1019C000A41B83955051B9F7A05DAA3308F0A95D17
:1019D000A193009779F7B111B1931192CB010C94B7
:1019E000F10CDC01FC01672F71917723E1F732974D
:1019F00004C07C916D9370836291AE17BF07C8F3EA
:101A00000895E89409C097FB3EF4909580957095F1
:101A100061957F4F8F4F9F4F9923A9F0F92F96E93A
:101A2000BB279395F695879577956795B795F111AF
:101A3000F8CFFAF4BB0F11F460FF1BC06F5F7F4F4C
:101A40008F4F9F4F16C0882311F096E911C077235E
:101A500021F09EE8872F762F05C0662371F096E867
:101A6000862F70E060E02AF09A95660F771F881F36
:101A7000DAF7880F9695879597F908950E94510D8A
:101A80000C94C20D0E94B40D38F00E94BB0D20F0E2
:101A9000952311F00C94AB0D0C94B10D11240C9402
:101AA000F60D0E94D30D70F3959FC1F3950F50E092
:101AB000551F629FF001729FBB27F00DB11D639F00
:101AC000AA27F00DB11DAA1F649F6627B00DA11DA6
:101AD000661F829F2227B00DA11D621F739FB00D4C
:101AE000A11D621F839FA00D611D221F749F3327BC
:101AF000A00D611D231F849F600D211D822F762F55
:101B00006A2F11249F5750409AF0F1F088234AF031
:101B1000EE0FFF1FBB1F661F771F881F915050409D
:101B2000A9F79E3F510580F00C94AB0D0C94F60D77
:101B30005F3FE4F3983ED4F3869577956795B79524
:101B4000F795E7959F5FC1F7FE2B880F911D96953E
:101B5000879597F9089597F99F6780E870E060E0AE
:101B600008959FEF80EC089500240A941616170636
:101B700018060906089500240A941216130614067E
:101B800005060895092E0394000C11F4882352F0E1
:101B9000BB0F40F4BF2B11F460FF04C06F5F7F4F99
:101BA0008F4F9F4F089557FD9058440F551F59F080
:101BB0005F3F71F04795880F97FB991F61F09F3F3A
:101BC00079F087950895121613061406551FF2CF63
:101BD0004695F1DF08C0161617061806991FF1CFB3
:101BE00086957105610508940895E894BB276627DA
:101BF0007727CB0197F908952F923F924F925F92EA
:101C00006F927F928F929F92AF92BF92CF92DF920C
:101C1000EF92FF920F931F93CF93DF93CDB7DEB771
:101C2000CA1BDB0B0FB6F894DEBF0FBECDBF099405
:101C30002A88398848885F846E847D848C849B845C
:101C4000AA84B984C884DF80EE80FD800C811B816A
:101C5000AA81B981CE0FD11D0FB6F894DEBF0FBE99
:101C6000CDBFED0108955058BB27AA270E944B0E07
:101C70000C94C20D0E94B40D38F00E94BB0D20F0F0
:101C800039F49F3F19F426F40C94B10D0EF4E0954D
:101C9000E7FB0C94AB0DE92F0E94D30D58F3BA1754
:101CA000620773078407950720F079F4A6F50C9472
:101CB000F50D0EF4E0950B2EBA2FA02D0B01B901F6
:101CC00090010C01CA01A0011124FF27591B99F0B2
:101CD000593F50F4503E68F11A16F040A22F232FBE
:101CE000342F4427585FF3CF469537952795A7950E
:101CF000F0405395C9F77EF41F16BA0B620B730BB5
:101D0000840BBAF09150A1F0FF0FBB1F661F771F25
:101D1000881FC2F70EC0BA0F621F731F841F48F4DA
:101D2000879577956795B795F7959E3F08F0B0CF63
:101D30009395880F08F09927EE0F9795879508954A
:101D40000E940F0F90F09F3748F4911116F40C94F5
:101D5000F60D60E070E080E89FE3089526F01B1622
:101D6000611D711D811D0C94E60E0C94010F0E94E3
:101D7000DB0D88F09F5798F0B92F9927B751B0F035
:101D8000E1F0660F771F881F991F1AF0BA95C9F7FF
:101D900014C0B13091F00E94F50DB1E008950C949B
:101DA000F50D672F782F8827B85F39F0B93FCCF34E
:101DB000869577956795B395D9F73EF4909580957C
:101DC000709561957F4F8F4F9F4F0895882371F4D1
:101DD000772321F09850872B762F07C0662311F4C4
:101DE00099270DC09051862B70E060E02AF09A95FB
:101DF000660F771F881FDAF7880F9695879597F9F2
:101E000008959F3F31F0915020F48795779567951D
:101E1000B795880F911D9695879597F908950E941B
:101E2000DB0DA0F0BEE7B91788F4BB279F3860F43C
:101E30001616B11D672F782F8827985FF7CF8695E4
:101E400077956795B11D93959639C8F30895EE0F70
:101E5000FF1F0590F491E02D09940F931F93CF93EA
:101E6000DF938230910510F482E090E0E0917002FF
:101E7000F091710220E030E0A0E0B0E0309719F17D
:101E8000408151810281138148175907C8F0841796
:101E9000950769F4109731F012960C9312971396E8
:101EA0001C9327C0009370021093710222C0211569
:101EB000310519F04217530718F49A01BD01EF01DB
:101EC000DF01F801DBCF21153105F9F0281B390BB3
:101ED0002430310580F48A819B816115710521F0E0
:101EE000FB019383828304C09093710280937002FC
:101EF000FE01329644C0FE01E20FF31F81939193DD
:101F000022503109398328833AC020916E023091E2
:101F10006F02232B41F42091020130910301309391
:101F20006F0220936E022091000130910101211572
:101F3000310541F42DB73EB74091040150910501A0
:101F4000241B350BE0916E02F0916F02E217F3074C
:101F5000A0F42E1B3F0B2817390778F0AC014E5F19
:101F60005F4F2417350748F04E0F5F1F50936F02E5
:101F700040936E028193919302C0E0E0F0E0CF01C4
:101F8000DF91CF911F910F910895CF93DF93009729
:101F900009F481C0FC01329713821282A091700271
:101FA000B0917102109781F420813181820F931FCB
:101FB00020916E0230916F022817390751F5F09386
:101FC0006F02E0936E0267C0ED0120E030E0CE17B3
:101FD000DF0740F44A815B819E0141155105F1F014
:101FE000EA01F5CFD383C28340815181840F951FCD
:101FF000C817D90759F488819981840F951F0296D3
:10200000918380838A819B8193838283211531050B
:1020100029F4F0937102E09370023DC0E901FB8363
:10202000EA8349915991C40FD51FEC17FD0761F45C
:1020300080819181840F951F0296E901998388839D
:10204000828193819B838A83E0E0F0E012968D91F8
:102050009C911397009719F0FD01DC01F7CF8D914A
:102060009C9111979D012E5F3F4F820F931F2091EE
:102070006E0230916F022817390769F4309729F4FE
:10208000109271021092700202C013821282B093F9
:102090006F02A0936E02DF91CF910895A0E0B0E0AF
:1020A000E4E5F0E10C94000EEC01009721F4CB0183
:1020B0000E942D0FB4C0FC01E60FF71F9C012250B7
:1020C0003109E217F30708F4A8C0D9010D911C915A
:1020D000119706171707B0F00530110508F49BC0DB
:1020E000C80104978617970708F495C00250110994
:1020F000061B170B019311936D937C93CF010E94E4
:10210000C50F89C05B01A01AB10A4C01800E911E57
:10211000A0917002B0917102612C712CE12CF12C14
:10212000109709F446C08D919C911197A815B90597
:10213000B1F56C0142E0C40ED11CCA14DB0478F185
:102140004C018A189B08640142E0C40ED11C12960F
:10215000BC9012971396AC91B5E0CB16D10440F029
:10216000B282A38391828082D9016D937C9309C04E
:102170000E5F1F4F800F911FF90191838083EB2D1C
:10218000FA2FE114F10431F0D7011396FC93EE938A
:10219000129741C0F0937102E09370023CC0681640
:1021A000790608F43C017D0112960D90BC91A02D9A
:1021B000B7CF80916E0290916F0288169906E1F474
:1021C00066167706C8F4809100019091010100978E
:1021D00041F48DB79EB74091040150910501841BD5
:1021E000950BE817F907C8F4F0936F02E0936E02BD
:1021F000F901718360830FC0CB010E942D0F7C0118
:10220000009759F0A801BE010E942111CE010E9441
:10221000C50FC70104C0CE0102C080E090E0CDB779
:10222000DEB7EEE00C941C0E81E090E0F8940C9484
:1022300031119111089581568A5108F480528558C0
:102240000895FB01DC0102C001900D924150504005
:10225000D8F70895FB01DC0101900D920020E1F711
:10226000089510E0C2E6D0E004C0FE010E94270FEE
:0C2270002196C336D107C9F7F894FFCFC0
:10227C0000007202800080C094D400000000300185
:10228C007A068D007D01BE009C00B00000000000AD
:10229C00F2033E03F90000000000EE05F50509010C
:1022AC0079066702330220300020005363616E20F0
:1022BC005049434320746F20736565205549442071
:1022CC00616E6420747970652E2E2E000D0A004309
:1022DC00616C61746F72696520706C616375746197
:1022EC00210056616C696461726520657375617457
:1022FC00612100436172642064656A612076616CBF
:06230C0069646174210008
:00000001FF
