:100000000C945E000C9486000C9486000C94860080
:100010000C9486000C9486000C9486000C94860048
:100020000C9486000C9486000C9486000C94860038
:100030000C9486000C9486000C9486000C94860028
:100040000C94AA030C9486000C9496020C947002F3
:100050000C9486000C9486000C9486000C94860008
:100060000C9486000C948600000000080002010039
:100070000003040700000000000000000000000072
:10008000250028002B0000000000240027002A0083
:10009000040404040404040402020202020203032E
:1000A0000303030301020408102040800102040836
:1000B00010200102040810209C0C770911241FBE97
:1000C000CFEFD8E0DEBFCDBF24E0A0E7B2E001C0B3
:1000D0001D92A93DB207E1F712E0A0E0B1E0EEEE1B
:1000E000F3E202C005900D92A037B107D9F710E0F6
:1000F000CDE5D0E004C02197FE010E94CA0FCC35A7
:10010000D107C9F70E94A8090C94EA110C940000C9
:100110000895CF92DF92EF92FF920F931F93CF93A8
:10012000DF936C017A018B01C0E0D0E0CE15DF05D2
:1001300081F0D8016D918D01D601ED91FC91019076
:10014000F081E02DC6010995892B11F02196EECFA3
:100150007E01C701DF91CF911F910F91FF90EF902A
:10016000DF90CF900895FC01538D448D252F30E012
:10017000842F90E0821B930B541710F0CF960895B4
:1001800001970895FC01918D828D981761F0828D01
:10019000DF01A80FB11D5D968C91928D9F5F9F73BB
:1001A000928F90E008958FEF9FEF0895FC01918D5D
:1001B000828D981731F0828DE80FF11D858D90E0CA
:1001C00008958FEF9FEF0895FC01918D228D892F67
:1001D00090E0805C9F4F821B91098F73992708954F
:1001E0008AE792E00E94E40021E0892B09F420E0F4
:1001F000822F0895FC01848DDF01A80FB11DA35A41
:10020000BF4F2C91848D90E001968F739927848F36
:10021000A689B7892C93A089B1898C918370806459
:100220008C93938D848D981306C00288F389E02DFA
:1002300080818F7D80830895EF92FF920F931F93AB
:10024000CF93DF93EC0181E0888F9B8D8C8D981389
:1002500005C0E889F989808185FD26C0F62E0B8DC1
:1002600010E00F5F1F4F0F731127E02E8C8DE812E7
:100270000CC00FB607FCFACFE889F989808185FFA9
:10028000F5CFCE010E94FA00F1CF8B8DFE01E80F71
:10029000F11DE35AFF4FF0829FB7F8940B8FEA8964
:1002A000FB89808180620AC09FB7F894EE89FF893C
:1002B0006083E889F98980818370806480839FBF2F
:1002C00081E090E0DF91CF911F910F91FF90EF902F
:1002D0000895CF93DF93EC01888D8823C9F0EA89D4
:1002E000FB89808185FD05C0A889B9898C9186FD2F
:1002F0000FC00FB607FCF5CF808185FFF2CFA8892C
:10030000B9898C9185FFEDCFCE010E94FA00E7CF2D
:10031000DF91CF91089580E090E0892B29F00E9431
:10032000F00081110C94000008953FB7F89480917B
:10033000760290917702A0917802B091790226B569
:10034000A89B05C02F3F19F00196A11DB11D3FBF0D
:10035000BA2FA92F982F8827820F911DA11DB11D9B
:10036000BC01CD0142E0660F771F881F991F4A9597
:10037000D1F708958F929F92AF92BF92CF92DF9262
:10038000EF92FF926B017C010E9495014B015C0191
:10039000C114D104E104F104F1F00E949501DC01E3
:1003A000CB0188199909AA09BB09883E9340A10588
:1003B000B10570F321E0C21AD108E108F10888EE16
:1003C000880E83E0981EA11CB11CC114D104E10465
:1003D000F10419F7DDCFFF90EF90DF90CF90BF9041
:1003E000AF909F908F90089580E090E00895AF9235
:1003F000BF92CF92DF92EF92FF920F931F93CF9312
:100400008C016A017B01C0E08C2F90E0A0E0B0E09D
:100410008C159D05AE05BF05D8F45801AC0EB11C76
:10042000F5018081803128F48CE591E00E94B006CE
:1004300005C060E28AE792E00E941C01F50160813C
:1004400070E080E090E040E10E94D006CF5FDCCF1A
:100450008FE591E00E94B006C0E08C2F90E0A0E014
:10046000B0E08C159D05AE05BF0568F4F801EC0FF2
:10047000F11D608160320CF46EE28AE792E00E9426
:100480001C01CF5FEACF8EE891E0CF911F910F91D1
:10049000FF90EF90DF90CF90BF90AF900C94C2068A
:1004A0000E94B711FC011182108213821282158200
:1004B00014820C94ED07FC011182108213821282C7
:1004C000158214826115710551F0FB010190002025
:1004D000E9F73197AF01461B570B0C94CC070895F1
:1004E0001F920F920FB60F9211242F933F934F93A9
:1004F0005F936F937F938F939F93AF93BF93EF938C
:10050000FF938AE792E00E94FA00FF91EF91BF917A
:10051000AF919F918F917F916F915F914F913F919B
:100520002F910F900FBE0F901F9018951F920F9252
:100530000FB60F9211242F938F939F93EF93FF93F6
:10054000E0918A02F0918B028081E0919002F0911B
:10055000910282FD12C09081809193028F5F8F7310
:1005600020919402821751F0E0919302F0E0E65856
:10057000FD4F958F8093930201C08081FF91EF9191
:100580009F918F912F910F900FBE0F901F901895F4
:1005900090E0FC01E859FF4F2491FC01EC55FF4F1E
:1005A0003491FC01E057FF4FE491EE2309F43CC085
:1005B000222339F1233091F038F42130A9F0223090
:1005C00001F584B58F7D12C0273091F02830A1F05D
:1005D0002430B9F4809180008F7D03C08091800029
:1005E0008F77809380000DC084B58F7784BD09C05C
:1005F0008091B0008F7703C08091B0008F7D809391
:10060000B000F0E0EE0FFF1FE458FF4FA591B4914A
:100610009FB7F894611104C08C913095382302C0C3
:10062000EC913E2B3C939FBF0895CF93DF93EC0159
:1006300060E08C810E94C80262E070E080E090E09F
:100640000E94BA0161E08C81DF91CF910C94C802C5
:10065000CF93CFB7F89480917002811124C0EAE95A
:10066000F0E08491EEEAF0E09491E82FF0E0EE0FF4
:10067000FF1FEA57FF4FA591B491EC91E92321F4B4
:1006800061E08AE00E94C8028AE00E9451068CB5AF
:1006900080618CBD8CB580648CBD8DE00E9451065C
:1006A0008BE00E945106809170028F5F80937002F0
:1006B000CFBFCF910895FC0184810E9451060E9412
:1006C00028038CB5837F8CBD8CB580628CBD8CB5C6
:1006D0008C7F81608CBD8DB581608DBD08950F9339
:1006E0001F93CF93DF93EC01162F022F642F8F817E
:1006F0000E94C8028F810E94510689850E9451067E
:100700008A850E9451068B850E9451068C850E9425
:10071000510601110AC0612F70E084E0759567955C
:100720008A95E1F7CE010E947006612F6F70CE01AD
:10073000DF91CF911F910F910C947006CF93DF93AF
:10074000EC0160E088850E94C8028885DF91CF9126
:100750000C9451061F920F920FB60F9211242F93F3
:100760003F938F939F93AF93BF9380917202909129
:100770007302A0917402B09175023091710223E06E
:10078000230F2D3720F40196A11DB11D05C026E8C9
:10079000230F0296A11DB11D209371028093720256
:1007A00090937302A0937402B093750280917602C5
:1007B00090917702A0917802B09179020196A11DE3
:1007C000B11D8093760290937702A0937802B09344
:1007D0007902BF91AF919F918F913F912F910F908F
:1007E0000FBE0F901F9018958EBD00000DB407FE30
:1007F000FDCF8EB5089580E00C94F403BF92CF92A4
:10080000DF92EF92FF920F931F93CF93DF938C01B0
:10081000D62EB72EC42E7901C0E0D0E0C8010E94C8
:100820006207811110C061E070E080E090E00E94FA
:10083000BA012196E114F10489F3EC16FD0670F774
:100840008EEF9FEF57C060E0F80184810E94C802DC
:1008500061E070E080E090E00E94BA0183E00E94D5
:10086000F4030E94FB03811115C00E94FB03811158
:1008700011C00E94FB038F3F69F40E94FB03C82F45
:100880000E94FB038C0F31F4F801D5810E94FB0319
:10089000853D49F0CDEFDFEF61E0F80184810E94F2
:1008A000C802CE0127C00E94FB0391E09D0F981360
:1008B000F1CFC250CC1638F40E94FB030E94FB0318
:1008C000CCEFDFEFE9CFDA52CD2CED2CFB2C8E2DC7
:1008D0008C198C1738F40E94FB03F70181937F0178
:1008E000D80FF5CF0E94FB038D0FA1F60E94FB03EA
:1008F000D0E0D2CFDF91CF911F910F91FF90EF9079
:10090000DF90CF90BF9008956F927F928F929F92C9
:10091000AF92BF92CF92DF92EF92FF920F931F930D
:10092000CF93DF93CDB7DEB72C970FB6F894DEBF29
:100930000FBECDBF6C017B01942E5901FB0180815C
:10094000F601858360E084810E94C80262E070E065
:1009500080E090E00E94BA0181E00E94F40380E010
:100960000E94F40380E00E94F4038FEF0E94F403DE
:1009700011E0100F190D812F0E94F403812F819532
:100980000E94F40384ED0E94F4033701690C711C8A
:1009900014EDE614F70451F04701F70181917F014E
:1009A0000E94F403F4018081180FF3CF7501450113
:1009B000800E911CE814F90451F05701F701819160
:1009C0007F010E94F403F5018081180FF3CF812F7E
:1009D00081950E94F40380E00E94F40361E0F60137
:1009E00084810E94C8021AE0C6010E946207811138
:1009F0000AC061E070E080E090E00E94BA0111500E
:100A000099F78EEF38C086E0E6E0F1E0DE01179658
:100A100001900D928A95E1F760E0F60184810E94D1
:100A2000C80261E070E080E090E00E94BA0183E0DB
:100A30000E94F4038E010F5F1F4F5E01F7E0AF0EBF
:100A4000B11C78010E94FB03F80181938F01EA1524
:100A5000FB05C1F761E0F60184810E94C80246E00F
:100A600050E0B801C7010E94C41191E0811101C09A
:100A700090E0892F81952C960FB6F894DEBF0FBEBB
:100A8000CDBFDF91CF911F910F91FF90EF90DF903D
:100A9000CF90BF90AF909F908F907F906F90089570
:100AA00020E040E00C94A305CF93DF93EC01E881B4
:100AB000F9810084F185E02D099521E040E063E0B3
:100AC000CE010E94A3058FE991E40197F1F700C0E0
:100AD000000021E040E063E0CE010E94A30587E52D
:100AE00092E00197F1F700C0000021E040E063E0F0
:100AF000CE010E94A30521E040E062E0CE010E9409
:100B0000A30568E2CE010E94500568E0CE010E9474
:100B100050051D8261E0CE010E9450058FE39FE1E8
:100B20000197F1F700C0000066E0CE010E94500579
:100B300082E08E836CE0CE010E94500584E08D83BC
:100B4000DF91CF910895FF920F931F93CF93DF937F
:100B5000EC01162F042FF22E8C81811105C081E04B
:100B60008C83CE010E945405E881F9810284F385CB
:100B7000E02D2F2D402F612FCE01099585EC8A9510
:100B8000F1F70000DF91CF911F910F91FF90089531
:100B900020E041E00E94A30581E090E00895CF921B
:100BA000DF92EF92FF920F931F93CF93DF937C011D
:100BB0008A01EB016B01C40ED51ECC15DD0539F0A1
:100BC000699120E041E0C7010E94A305F6CFC8016A
:100BD000DF91CF911F910F91FF90EF90DF90CF9019
:100BE00008950F931F93CF93DF938C01EB01FC01CA
:100BF000808191810097B1F06881798161157105DB
:100C000079F0428153812C813D814217530740F096
:100C10000E94E3118C819D81F8019583848313C028
:100C20000E94681088819981F801918380838A816C
:100C30009B81938382838C819D8195838483198298
:100C400018821B821A821D821C82DF91CF911F9114
:100C50000F9108950F931F93CF93DF93EC01888139
:100C60009981009729F02A813B812617370788F45C
:100C70008B016F5F7F4F0E94F110009761F09983A5
:100C800088831B830A832C813D81232B11F4FC0173
:100C9000108281E001C080E0DF91CF911F910F9120
:100CA000089590E0FC01EC55FF4F2491FC01E057C2
:100CB000FF4F8491882399F090E0880F991FFC01E1
:100CC000EA57FF4FA591B491FC01E458FF4F85917D
:100CD00094918FB7F894EC91E22BEC938FBF089529
:100CE0000F931F93CF93DF938C01C62F6170FC018C
:100CF00081850E94C802D0E0BE017595679561703C
:100D0000F80182850E94C802BE01759567957595A8
:100D100067956170F80183850E94C80223E0D5952C
:100D2000C7952A95E1F76C2F6170F80184850E94C0
:100D3000C80261E0F80180850E94C802F5E0FA95DA
:100D4000F1F7000060E0F80180850E94C802F5E03C
:100D5000FA95F1F70000DF91CF911F910F9108955F
:100D6000009769F0FC0101900020E9F73197AF018D
:100D7000481B590BBC018AE792E00C94890080E083
:100D800090E00895CF93DF930E94B006EC018CE8C9
:100D900091E00E94B0068C0F9D1FDF91CF910895C6
:100DA0008F929F92AF92BF920F931F93CF93DF9337
:100DB000CDB7DEB7A1970FB6F894DEBF0FBECDBF9B
:100DC00019A2423008F44AE08E010F5D1F4F842EB5
:100DD000912CA12CB12CA50194010E94A80FE62F03
:100DE000B901CA0101501109EA3014F4E05D01C0F3
:100DF000E95CD801EC93232B242B252B61F7C80148
:100E00000E94B006A1960FB6F894DEBF0FBECDBF0C
:100E1000DF91CF911F910F91BF90AF909F908F90D6
:100E20000895EF92FF920F93CF93DF93EA01790138
:100E300020E4209339032091380320933A03A091B2
:100E40007903B0917A03ED91FC9111970480F581BB
:100E5000E02D062F9C0142E069E373E0CD01099586
:100E6000882311F080E028C08091790390917A0363
:100E7000DC01ED91FC910680F781E02D28EE33E056
:100E8000D7014C91BE01099597FDECCF28812F73B6
:100E900049F7F70190818150981708F4892F2C2F7A
:100EA000EC2FFD2F9E2F921B981718F49181919390
:100EB000F9CFF701808381E0DF91CF910F91FF900F
:100EC000EF9008951F93CF93DF93EC0160E08C8146
:100ED0000E94C80282E00E94F4030E94FB03182FC4
:100EE00061E08C810E94C802812F8170DF91CF91D7
:100EF0001F910895EF92FF920F931F93CF93DF936B
:100F00006115710511F480E01CC041155105C1F057
:100F10007B01EC018C819D818A01080F191FB801AA
:100F2000CE010E942A06882371F3288139818C81A1
:100F30009D81B701820F931F0E94E3111D830C83D3
:100F400081E0DF91CF911F910F91FF90EF90089575
:100F5000CF93DF93EC0188819981009711F00E9473
:100F60006810198218821D821C821B821A82DF91EE
:100F7000CF910895CF93DF93EC0141E050E068E416
:100F800072E00E947A07811103C0CE010E94A80777
:100F9000CE01DF91CF910895EF92FF920F931F93AF
:100FA000CF93DF93EC017B018A01BA010E942A06EC
:100FB000811104C0CE010E94A80707C01D830C83C5
:100FC000B701888199810E94E311CE01DF91CF9111
:100FD0001F910F91FF90EF900895CF93DF93EC0155
:100FE000FB018617970761F06081718161157105BA
:100FF00029F0448155810E94CC0702C00E94A807B5
:10100000CE01DF91CF910895FC01808191810C94F4
:101010006810BF92CF92DF92EF92FF920F931F93CF
:10102000CF93DF937C016B01EA0189012417350717
:1010300020F48D2FE901042F182F6EE871E0C7010D
:101040000E945B02D60114968D919C911597C8174A
:10105000D90740F58017910708F48C01D601ED916E
:10106000FC911197E00FF11FB08010826D917C917F
:101070006C0F7D1F6115710561F0FB01019000206F
:10108000E9F73197AF01461B570BC7010E94CC0708
:1010900003C0C7010E94A807D601ED91FC91E00FA3
:1010A000F11FB082C701DF91CF911F910F91FF9087
:1010B000EF90DF90CF90BF9008952F923F924F9284
:1010C0005F927F928F929F92AF92BF92CF92DF9268
:1010D000EF92FF920F931F93CF93DF93CDB7DEB7BD
:1010E0002C970FB6F894DEBF0FBECDBF8C0161E028
:1010F00087E193E00E9450058FE39FE10197F1F7AC
:1011000000C00000B801CE0101960E945202F0908A
:10111000AE04E090AF04CD80DE80CE0101960E9447
:101120000408FE9CC00111248C159D0508F4C6C05E
:101130006EE871E0CE0107960E945B02F12CE12C73
:1011400080902A0190902B01A0902C01B0902D014D
:10115000F80144815581D090AF048D2D90E048175F
:10116000590788F12F2D30E0820F931F84179507C0
:1011700040F0DA94C9018D0D911D84179507C8F7C9
:10118000F801608171816115710599F3FB01E80F28
:10119000F91F8081803269F72D0D311D40E050E04C
:1011A000B801CE0101960E940908BE016F5F7F4F12
:1011B000CE0107960E94F105CE0101960E94040817
:1011C000F394FD0C0AC0B801CE0107960E94ED070A
:1011D000F801848195810196F80E772473947E0C32
:1011E0006091AF0470E061507109072E000C880B0C
:1011F000990B0E94840D20E030E040E05FE30E9404
:10120000BF0D1B012C016B857C856150710980E04D
:1012100090E00E94820D20E030E040E05FE30E9419
:10122000BF0D9B01AC01C201B1010E94B40E0E942E
:10123000210F89829A82AB82BC822E2D243008F045
:1012400023E0CC24C394D12CCC0EDD1EC20ED11CC5
:101250000E94380FF6018081680F87E193E00E94B9
:101260005005F5ECFA95F1F700004B855C856F8130
:10127000788587E193E00E94CF05F80124813581CC
:101280004F2D50E0B801CE0101960E940908BE0121
:101290006F5F7F4FC8010E94F105CE0101960E9449
:1012A0000408F80184819581892B11F0E72C50CF37
:1012B000CE0107960E94040881E001C080E02C96D0
:1012C0000FB6F894DEBF0FBECDBFDF91CF911F9157
:1012D0000F91FF90EF90DF90CF90BF90AF909F90D5
:1012E0008F907F905F904F903F902F900895CF9375
:1012F000DF9381E893E0892BF1F48BE793E00E9480
:10130000040880EB94E00E94040886EB94E00E94BD
:1013100004088CEB94E00E94040882EC94E00E94A4
:10132000040888EC94E00E9404088EEC94E0DF91BD
:10133000CF910C940408C0E0D0E0CE0189559B4FBA
:101340000E9404082697C43D8EEFD807B1F7D5CF89
:10135000CF93DF93CDB7DEB7CC56D1090FB6F89453
:10136000DEBF0FBECDBF789484B5826084BD84B5E6
:10137000816084BD85B5826085BD85B5816085BD90
:1013800080916E00816080936E0010928100809148
:1013900081008260809381008091810081608093D0
:1013A0008100809180008160809380008091B100F5
:1013B00084608093B1008091B00081608093B00020
:1013C00080917A00846080937A0080917A008260B4
:1013D00080937A0080917A00816080937A00809176
:1013E0007A00806880937A001092C100E0918A02AE
:1013F000F0918B0282E08083E0918602F091870277
:101400001082E0918802F091890280E1808310923D
:101410009202E0918E02F0918F0286E08083E0914B
:101420008C02F0918D02808180618083E0918C023A
:10143000F0918D02808188608083E0918C02F09130
:101440008D02808180688083E0918C02F0918D0212
:1014500080818F7D808380911B03811107C081E093
:1014600080931B0387E193E00E94540560EB74E0D6
:10147000CE0101967C010E945202C7010E945D08C4
:10148000C7010E9404080E9428038091790390916B
:101490007A03DC01ED91FC910190F081E02D09953A
:1014A0008091790390917A03DC01ED91FC910280A7
:1014B000F381E02D099594E19093390381E08093C5
:1014C0003A0390933B0380933C038091790390917E
:1014D0007A03DC01ED91FC910480F581E02D00E0C0
:1014E00020E030E044E069E373E00995811110C029
:1014F0008091790390917A03DC01ED91FC91068053
:10150000F781E02D28EE33E040E469E373E00995CC
:1015100084E691E00E94C2068AE4A82E77247394A0
:1015200090E2692E20E2522EA092390370923A0383
:1015300010923B038091790390917A03DC01ED9145
:10154000FC910480F581E02D00E020E030E043E0F4
:1015500069E373E0099581112AC080917903909124
:101560007A03DC01ED91FC910680F781E02D28EEF5
:1015700033E040E469E373E0099597FD18C080917A
:1015800039038130A1F4D0903E03AFE3B3E08E0184
:10159000015A1F4FF801C02E8E2F801B8D1550F45D
:1015A0008D918193F9CF8FE891E00E94C2060E944D
:1015B0008B01BACF81EC91E00E94C2068DE0ECE095
:1015C000F1E0DE01AE5ABF4F01900D928A95E1F72E
:1015D000AD966FAEAD979E0124593F4FAE014F5D62
:1015E0005F4F6DE0CE018E5A9F4F0E9411078823F6
:1015F00009F44EC08BE791E00E94B006AD966FAD46
:10160000AD9770E080E090E04AE00E94D0068CE860
:1016100091E00E94B006AD964FADAD9750E060E00E
:1016200070E0CE0181960E94F70181E1E9E1F1E0ED
:10163000DE01AF5BBF4F01900D928A95E1F7A7964F
:101640005FAEA7979E012A593F4FA70161E1CE01E6
:101650008F5B9F4F0E941107882309F4A4CF8BE76B
:1016600091E00E94B006A7966FADA79770E080E06A
:1016700090E04AE00E94D0068CE891E00E94B0061B
:10168000A7964FADA79750E060E070E0C701CBCFC1
:101690006EE871E0CE018A599F4F0E945B02802F55
:1016A0008C198D1508F04DC0F801B1908F01FFE045
:1016B000FB1518F462E671E002C06CE571E0C70149
:1016C0000E945B024D815E8169817A81CE018A59D7
:1016D0009F4F0E947A07C7010E94040823961FAEFD
:1016E0001EAE239725961FAE1EAE259727961FAEDA
:1016F0001EAE279740E1B7018B2D90E00E94580D58
:10170000F70101900020E9F73197AF014E195F0909
:10171000B701CE018F5B9F4F0E94CC0727964EAD3D
:101720005FAD279723966EAD7FAD2397CE018A5983
:101730009F4F0E947A07CE018F5B9F4F0E94040843
:10174000AECFA8960EAD1FADA8970115110569F093
:10175000D8018C91882349F0082E000C990B0E9427
:10176000BC11F80181938F01F3CFBE016A597F4FFD
:10177000CE018F5B9F4F0E94520268EC74E0C7015C
:101780000E945202C7010E945D08C7010E9404081E
:101790006CED75E080E090E00E94BA014090AD04ED
:1017A00027968EAC9FAC27972396CEACDFAC2397C1
:1017B00001E813E0B12C4B1469F1D80114968D9116
:1017C0009C9115978815990509F58D919C91009725
:1017D00021F0C114D104A9F40DC0C114D104E1F069
:1017E00081149104C9F0F601808190E09195819572
:1017F00091090AC08114910479F0DC018C9190E088
:1018000003C0B6010E94DA11892B31F0B3940A5F4C
:101810001F4FD1CF10E001C011E0CE018F5B9F4F71
:101820000E94040811113CC062EA71E0C7010E94E5
:101830005B02AC964EAD5FADAC97A8966EAD7FAD3A
:10184000A897C7010E947A07811103C0C7010E94AF
:10185000A807C7010E94BA07FC0144815581608135
:1018600071818AE792E00E9489008CE891E00E94F1
:10187000B006C7010E9404088091AD0491E0980F62
:101880009093AD04F6E08F9FC0011124BE016A5908
:101890007F4F8F579C4F0E94ED0762EC74E02CC085
:1018A0006DEA71E0C7010E945B02AC964EAD5FAD80
:1018B000AC97A8966EAD7FADA897C7010E947A0736
:1018C000811103C0C7010E94A807C7010E94BA077F
:1018D000DC0114964D915C9115976D917C918AE78E
:1018E00092E00E9489008CE891E00E94B006C70156
:1018F0000E94040866EB74E0C7010E945202C7010F
:101900000E945D08C7010E94040860ED77E080E056
:1019100090E00E94BA0160EB74E0C7010E9452029D
:10192000C7010E945D08C7010E940408CE018A59C0
:101930009F4F0E9404083BCECF93DF9310927D020D
:1019400010927C0288EE93E0A0E0B0E080937E02EB
:1019500090937F02A0938002B093810282E391E092
:1019600090937B0280937A0285EC90E090938702BB
:101970008093860284EC90E09093890280938802A1
:1019800080EC90E090938B0280938A0281EC90E04F
:1019900090938D0280938C0282EC90E090938F0262
:1019A00080938E0286EC90E0909391028093900257
:1019B0001092930210929402109295021092960245
:1019C0006DEC71E08EEC94E00E945B0261E172E0EC
:1019D00088EC94E00E945B0266E272E082EC94E0A4
:1019E0000E945B0269E372E08CEB94E00E945B0270
:1019F0006AE472E086EB94E00E945B026DE572E0BF
:101A000080EB94E00E945B0210921A03109219037B
:101A100010921B0380E591E09093180380931703C5
:101A200082E080931E0383E080931F0384E0809311
:101A3000200387E08093210388E08093220389E0DC
:101A40008093230384E491E09093250380932403FF
:101A50001092290384ED94E090932703809326034A
:101A60008AE08093280384E293E090937A03809342
:101A700079036EE871E08BE793E00E945B02C0E0BF
:101A8000D0E06EE871E0CE018F579C4F0E945B0260
:101A90002696CC3281E0D807A1F71092AD0482E0FF
:101AA0008093AE0480E18093AF04DF91CF910895DD
:101AB000BB27FB015527AA27880F991FAA1FA41728
:101AC00010F0A41B83955051B9F7A05DAA3308F01C
:101AD000A95DA193009779F7B111B1931192CB0150
:101AE0000C94720DDC01FC01672F71917723E1F7F3
:101AF000329704C07C916D9370836291AE17BF07DB
:101B0000C8F30895E89409C097FB3EF4909580953A
:101B1000709561957F4F8F4F9F4F9923A9F0F92FB3
:101B200096E9BB279395F695879577956795B79531
:101B3000F111F8CFFAF4BB0F11F460FF1BC06F5F17
:101B40007F4F8F4F9F4F16C0882311F096E911C029
:101B5000772321F09EE8872F762F05C0662371F04A
:101B600096E8862F70E060E02AF09A95660F771F5E
:101B7000881FDAF7880F9695879597F908950E9440
:101B8000D20D0C94430E0E94350E38F00E943C0E8C
:101B900020F0952311F00C942C0E0C94320E11248D
:101BA0000C94770E0E94540E70F3959FC1F3950F1D
:101BB00050E0551F629FF001729FBB27F00DB11DD1
:101BC000639FAA27F00DB11DAA1F649F6627B00D61
:101BD000A11D661F829F2227B00DA11D621F739F4A
:101BE000B00DA11D621F839FA00D611D221F749F58
:101BF0003327A00D611D231F849F600D211D822F9F
:101C0000762F6A2F11249F5750409AF0F1F08823C5
:101C10004AF0EE0FFF1FBB1F661F771F881F9150F2
:101C20005040A9F79E3F510580F00C942C0E0C9467
:101C3000770E5F3FE4F3983ED4F3869577956795EA
:101C4000B795F795E7959F5FC1F7FE2B880F911D1C
:101C50009695879597F9089597F99F6780E870E0C2
:101C600060E008959FEF80EC089500240A94161612
:101C7000170618060906089500240A94121613067A
:101C8000140605060895092E0394000C11F4882308
:101C900052F0BB0F40F4BF2B11F460FF04C06F5F24
:101CA0007F4F8F4F9F4F089557FD9058440F551FFA
:101CB00059F05F3F71F04795880F97FB991F61F0CE
:101CC0009F3F79F087950895121613061406551F45
:101CD000F2CF4695F1DF08C0161617061806991FB1
:101CE000F1CF86957105610508940895E894BB27A6
:101CF00066277727CB0197F908952F923F924F924D
:101D00005F926F927F928F929F92AF92BF92CF928B
:101D1000DF92EF92FF920F931F93CF93DF93CDB794
:101D2000DEB7CA1BDB0B0FB6F894DEBF0FBECDBF0C
:101D300009942A88398848885F846E847D848C84DD
:101D40009B84AA84B984C884DF80EE80FD800C81E6
:101D50001B81AA81B981CE0FD11D0FB6F894DEBFC9
:101D60000FBECDBFED0108955058BB27AA270E9492
:101D7000CC0E0C94430E0E94350E38F00E943C0E9F
:101D800020F039F49F3F19F426F40C94320E0EF42F
:101D9000E095E7FB0C942C0EE92F0E94540E58F3AB
:101DA000BA17620773078407950720F079F4A6F540
:101DB0000C94760E0EF4E0950B2EBA2FA02D0B018D
:101DC000B90190010C01CA01A0011124FF27591B80
:101DD00099F0593F50F4503E68F11A16F040A22F86
:101DE000232F342F4427585FF3CF469537952795F7
:101DF000A795F0405395C9F77EF41F16BA0B620BF6
:101E0000730B840BBAF09150A1F0FF0FBB1F661F3C
:101E1000771F881FC2F70EC0BA0F621F731F841F7F
:101E200048F4879577956795B795F7959E3F08F0A5
:101E3000B0CF9395880F08F09927EE0F9795879567
:101E400008950E94900F90F09F3748F4911116F476
:101E50000C94770E60E070E080E89FE3089526F030
:101E60001B16611D711D811D0C94670F0C94820F50
:101E70000E945C0E88F09F5798F0B92F9927B751B0
:101E8000B0F0E1F0660F771F881F991F1AF0BA951E
:101E9000C9F714C0B13091F00E94760EB1E00895F8
:101EA0000C94760E672F782F8827B85F39F0B93FEA
:101EB000CCF3869577956795B395D9F73EF49095D1
:101EC0008095709561957F4F8F4F9F4F0895882320
:101ED00071F4772321F09850872B762F07C0662363
:101EE00011F499270DC09051862B70E060E02AF024
:101EF0009A95660F771F881FDAF7880F9695879552
:101F000097F908959F3F31F0915020F48795779588
:101F10006795B795880F911D9695879597F90895C0
:101F20000E945C0EA0F0BEE7B91788F4BB279F386B
:101F300060F41616B11D672F782F8827985FF7CFAA
:101F4000869577956795B11D93959639C8F3089551
:101F5000A1E21A2EAA1BBB1BFD010DC0AA1FBB1FAD
:101F6000EE1FFF1FA217B307E407F50720F0A21B1F
:101F7000B30BE40BF50B661F771F881F991F1A948C
:101F800069F760957095809590959B01AC01BD01B6
:101F9000CF010895EE0FFF1F0590F491E02D0994F5
:101FA0000F931F93CF93DF938230910510F482E05B
:101FB00090E0E091D704F091D80420E030E0A0E078
:101FC000B0E0309719F140815181028113814817A7
:101FD0005907C8F08417950769F4109731F01296E5
:101FE0000C93129713961C9327C00093D704109359
:101FF000D80422C02115310519F04217530718F4EF
:102000009A01BD01EF01DF01F801DBCF2115310598
:10201000F9F0281B390B2430310580F48A819B812B
:102020006115710521F0FB019383828304C09093B5
:10203000D8048093D704FE01329644C0FE01E20F1B
:10204000F31F8193919322503109398328833AC039
:102050002091D5043091D604232B41F42091020124
:10206000309103013093D6042093D50420910001D0
:10207000309101012115310541F42DB73EB7409152
:10208000040150910501241B350BE091D504F0911A
:10209000D604E217F307A0F42E1B3F0B28173907CD
:1020A00078F0AC014E5F5F4F2417350748F04E0FB4
:1020B0005F1F5093D6044093D5048193919302C03F
:1020C000E0E0F0E0CF01DF91CF911F910F910895F3
:1020D000CF93DF93009709F481C0FC0132971382FC
:1020E0001282A091D704B091D804109781F4208176
:1020F0003181820F931F2091D5043091D604281787
:10210000390751F5F093D604E093D50467C0ED018B
:1021100020E030E0CE17DF0740F44A815B819E016A
:1021200041155105F1F0EA01F5CFD383C283408117
:102130005181840F951FC817D90759F48881998157
:10214000840F951F0296918380838A819B8193835C
:1021500082832115310529F4F093D804E093D70444
:102160003DC0E901FB83EA8349915991C40FD51F12
:10217000EC17FD0761F480819181840F951F029611
:10218000E90199838883828193819B838A83E0E03C
:10219000F0E012968D919C911397009719F0FD0134
:1021A000DC01F7CF8D919C9111979D012E5F3F4FE0
:1021B000820F931F2091D5043091D6042817390738
:1021C00069F4309729F41092D8041092D70402C011
:1021D00013821282B093D604A093D504DF91CF91DD
:1021E0000895A0E0B0E0E7EFF0E10C94810EEC017F
:1021F000009721F4CB010E94D00FB4C0FC01E60F80
:10220000F71F9C0122503109E217F30708F4A8C018
:10221000D9010D911C91119706171707B0F00530E1
:10222000110508F49BC0C80104978617970708F4A6
:1022300095C002501109061B170B019311936D9362
:102240007C93CF010E94681089C05B01A01AB10A7B
:102250004C01800E911EA091D704B091D804612C3E
:10226000712CE12CF12C109709F446C08D919C91B2
:102270001197A815B905B1F56C0142E0C40ED11C47
:10228000CA14DB0478F14C018A189B08640142E00F
:10229000C40ED11C1296BC9012971396AC91B5E067
:1022A000CB16D10440F0B282A38391828082D901FF
:1022B0006D937C9309C00E5F1F4F800F911FF90132
:1022C00091838083EB2DFA2FE114F10431F0D701D3
:1022D0001396FC93EE93129741C0F093D804E093C9
:1022E000D7043CC06816790608F43C017D011296BB
:1022F0000D90BC91A02DB7CF8091D5049091D604BC
:1023000088169906E1F466167706C8F480910001F4
:1023100090910101009741F48DB79EB7409104015F
:1023200050910501841B950BE817F907C8F4F09349
:10233000D604E093D504F901718360830FC0CB010B
:102340000E94D00F7C01009759F0A801BE010E94A5
:10235000D111CE010E946810C70104C0CE0102C095
:1023600080E090E0CDB7DEB7EEE00C949D0E81E00A
:1023700090E0F8940C94EA119111089581568A51D5
:1023800008F4805285580895FB01DC0104C08D914A
:102390000190801921F441505040C8F7881B990BD7
:1023A0000895FB01DC0102C001900D9241505040A4
:1023B000D8F70895FB01DC018D910190801901107F
:1023C000D9F3990B0895FB01DC0101900D920020D7
:1023D000E1F7089510E0CDE5D0E004C0FE010E94D1
:0E23E000CA0F2196CE35D107C9F7F894FFCF6A
:1023EE000000D90480000000FF00FF0000A40400DC
:1023FE0007F00102030405060048656C6C6F6672F7
:10240E006F6D41726475696E6F2180C094D4000047
:10241E0000001C018900B3006901E400C200D6006F
:10242E00000000005B0315038404FE03000000009F
:10243E00C805CF05F40188009E036F0320300020ED
:10244E0020202000496E697469616C697A65642088
:10245E0056616C696461746F722100726573706F7E
:10246E006E73654C656E6774683A20000D0A004203
:10247E00726F6B656E20636F6E6E656374696F6EDF
:10248E003F0056616C6964617465642000416C7232
:10249E00656164792072656769737465726564201D
:1024AE0000466F756E642063617264210044616E34
:1024BE0069204D6F63616E7520766120757265615E
:1024CE007A61206F207A69206672756D6F61736113
:1024DE0021204D756C74756D696D2063612061747A
:1024EE006920616C657320444D205472616E7321B6
:1024FE00005365206369746573746520636172644B
:10250E00756C2E2E2E0043616C61746F726965209E
:10251E00706C6163757461210056616C69646172DF
:10252E006520657375617461210043617264206476
:10253E00656A612076616C69646174210041707214
:10254E006F70696174692063617264756C2100003B
:107E0000112484B714BE81FFF0D085E080938100F7
:107E100082E08093C00088E18093C10086E0809377
:107E2000C20080E18093C4008EE0C9D0259A86E02C
:107E300020E33CEF91E0309385002093840096BBD3
:107E4000B09BFECF1D9AA8958150A9F7CC24DD24C4
:107E500088248394B5E0AB2EA1E19A2EF3E0BF2EE7
:107E6000A2D0813461F49FD0082FAFD0023811F036
:107E7000013811F484E001C083E08DD089C08234E0
:107E800011F484E103C0853419F485E0A6D080C0E4
:107E9000853579F488D0E82EFF2485D0082F10E0AE
:107EA000102F00270E291F29000F111F8ED06801E7
:107EB0006FC0863521F484E090D080E0DECF843638
:107EC00009F040C070D06FD0082F6DD080E0C81688
:107ED00080E7D80618F4F601B7BEE895C0E0D1E017
:107EE00062D089930C17E1F7F0E0CF16F0E7DF06D8
:107EF00018F0F601B7BEE89568D007B600FCFDCFD4
:107F0000A601A0E0B1E02C9130E011968C91119780
:107F100090E0982F8827822B932B1296FA010C0160
:107F200087BEE89511244E5F5F4FF1E0A038BF0790
:107F300051F7F601A7BEE89507B600FCFDCF97BE46
:107F4000E89526C08437B1F42ED02DD0F82E2BD052
:107F50003CD0F601EF2C8F010F5F1F4F84911BD097
:107F6000EA94F801C1F70894C11CD11CFA94CF0C13
:107F7000D11C0EC0853739F428D08EE10CD085E9AC
:107F80000AD08FE07ACF813511F488E018D01DD067
:107F900080E101D065CF982F8091C00085FFFCCF94
:107FA0009093C60008958091C00087FFFCCF809118
:107FB000C00084FD01C0A8958091C6000895E0E648
:107FC000F0E098E1908380830895EDDF803219F02E
:107FD00088E0F5DFFFCF84E1DECF1F93182FE3DFCA
:107FE0001150E9F7F2DF1F91089580E0E8DFEE27F6
:047FF000FF270994CA
:027FFE00040479
:0400000300007E007B
:00000001FF