:100000000C946B000C9493000C9493000C9493004C
:100010000C9493000C9493000C9493000C94930014
:100020000C9493000C9493000C9493000C94930004
:100030000C9493000C9493000C9493000C949300F4
:100040000C9437020C9493000C94120A0C94EC0953
:100050000C9493000C9493000C9493000C949300D4
:100060000C9493000C949300160618061A061C06AE
:100070001E06200622062406000000002500280097
:100080002B0000000000240027002A0000000000D0
:1000900023002600290004040404040404040202CA
:1000A00002020202030303030303010204081020F7
:1000B0004080010204081020010204081020000002
:1000C0000008000201000003040700000000000017
:1000D00000007E11B90E11241FBECFEFD8E0DEBFA5
:1000E000CDBF24E0A0EEB1E001C01D92AA35B20759
:1000F000E1F711E0A0E0B1E0EEE3FDE202C005901F
:100100000D92A03EB107D9F710E0CAE6D0E004C0D6
:100110002197FE010E947F14C936D107C9F70E94BA
:10012000EA0E0C9492160C940000FC01918D228D25
:10013000892F90E0805C9F4F821B91098F739927D4
:10014000089580E090E0892B29F00E9473098111C5
:100150000C94000008953FB7F8948091E5019091C8
:10016000E601A091E701B091E80126B5A89B05C082
:100170002F3F19F00196A11DB11D3FBFBA2FA92F26
:10018000982F8827820F911DA11DB11DBC01CD01A3
:1001900042E0660F771F881F991F4A95D1F708958F
:1001A000BC016E5F7F4FDC01ED91FC910190F0810D
:1001B000E02D40E0099591E0811190E0892F0895AC
:1001C00080E090E008950E946C16CF93DF93EC01DD
:1001D000BC016E5E7F4FE881F9810190F081E02DD6
:1001E00040E009959A899A839D8D9D87DE0113963B
:1001F000FE0173969AE001900D929A95E1F791E0D5
:10020000811190E0892FDF91CF910895FC01848DB9
:10021000DF01A80FB11DA35ABF4F2C91848D90E030
:1002200001968F739927848FA689B7892C93A0890B
:10023000B1898C91837080648C93938D848D981395
:1002400006C00288F389E02D80818F7D8083089528
:10025000833081F028F4813099F08230A1F0089544
:100260008730A9F08830B9F08430D1F480918000D3
:100270008F7D03C0809180008F77809380000895E8
:1002800084B58F7702C084B58F7D84BD0895809139
:10029000B0008F7703C08091B0008F7D8093B00055
:1002A00008951F93CF93DF93282F30E0F901E25494
:1002B000FF4F8491F901E655FF4FD491F901EA56B9
:1002C000FF4FC491CC23C1F0162F81110E94280149
:1002D000EC2FF0E0EE0FFF1FE858FF4FA591B4910F
:1002E0009FB7F894111104C08C91D095D82302C007
:1002F000EC91DE2BDC939FBFDF91CF911F9108958E
:10030000CF93DF9390E0FC01E655FF4F2491FC0171
:10031000EA56FF4F8491882361F190E0880F991F7E
:10032000FC01EE57FF4FC591D491FC01E858FF4FF7
:10033000A591B491611109C09FB7F8948881209567
:1003400082238883EC912E230BC0623061F49FB727
:10035000F8948881322F309583238883EC912E2B5B
:100360002C939FBF06C08FB7F894E8812E2B28836B
:100370008FBFDF91CF9108950F931F93CF93DF939A
:10038000EC01162F022F642F8F810E94510161E032
:100390008F810E94800161E089850E94800161E077
:1003A0008A850E94800161E08B850E94800161E066
:1003B0008C850E94800101110AC0612F70E084E0E9
:1003C000759567958A95E1F7CE010E94440A612FE1
:1003D0006F70CE01DF91CF911F910F910C94440A61
:1003E000CF93DF93EC0160E088850E94510161E0CA
:1003F0008885DF91CF910C9480018F929F92AF926C
:10040000BF92CF92DF92EF92FF926B017C010E942C
:10041000AB004B015C01C114D104E104F104F1F023
:100420000E94AB00DC01CB0188199909AA09BB091C
:10043000883E9340A105B10570F321E0C21AD108AE
:10044000E108F10888EE880E83E0981EA11CB11C1B
:10045000C114D104E104F10419F7DDCFFF90EF904E
:10046000DF90CF90BF90AF909F908F9008951F9294
:100470000F920FB60F9211242F933F938F939F9358
:10048000AF93BF938091E1019091E201A091E301CC
:10049000B091E4013091E00123E0230F2D3720F4E7
:1004A0000196A11DB11D05C026E8230F0296A11DCE
:1004B000B11D2093E0018093E1019093E201A093AC
:1004C000E301B093E4018091E5019091E601A091F0
:1004D000E701B091E8010196A11DB11D8093E501EE
:1004E0009093E601A093E701B093E801BF91AF912B
:1004F0009F918F913F912F910F900FBE0F901F9062
:10050000189508958EBD00000DB407FEFDCF8EB581
:1005100008958CBD9DBD08951F93CF93DF93EC018B
:10052000162F83E590E00E94890260E08E850E948C
:100530005101812F80680E94820280E00E94820225
:10054000182F61E08E850E945101812FDF91CF919C
:100550001F9108950F931F93CF93DF93EC01062F04
:10056000142F83E590E00E94890260E08E850E944E
:100570005101802F0E948202812F0E94820261E03D
:100580008E85DF91CF911F910F910C9451010F93A4
:100590001F93CF93DF9300D01F92CDB7DEB78C01AE
:1005A00082E08B8340E064E2C8010E94AA0240E03E
:1005B00066E2C8010E94AA0246E268E4C8010E94FD
:1005C000AA02AE014D5F5F4FBE016F5F7F4FC80152
:1005D0000E94480D8D7FB9F589819A81D801519685
:1005E0009C938E9350975E961C925E9780E25F96E6
:1005F0008C935F9790961C92909791961C929197EE
:1006000092961C92929793961C92939794961C9212
:10061000949795961C92959796961C929697979676
:100620001C92979781E098968C93989799961C9234
:10063000F801BA968EE3DF011D928A95E9F7FE96DE
:10064000108281E001C080E00F900F900F90DF9149
:10065000CF911F910F9108950F931F93CF93DF9325
:1006600000D01F92CDB7DEB78C0182E08B8340E0D3
:1006700064E2C8010E94AA0240E066E2C8010E944A
:10068000AA0246E268E4C8010E94AA02AE014D5FD8
:100690005F4FBE016F5F7F4FC8010E94480D982FCA
:1006A00081E0992319F0923009F080E00F900F90CB
:1006B0000F90DF91CF911F910F910895CF92DF920C
:1006C000EF92FF920F931F93CF93DF93EC016B0197
:1006D000142F790140E062E00E94AA0244E06AE03F
:1006E000CE010E94AA0240E864E1CE010E94AA0263
:1006F000A601612FCE010E94B20A43E062E0CE0162
:100700000E94AA0208E813E16AE0CE010E948C026E
:1007100082FF13C040E062E0CE010E94AA0264E4BE
:10072000CE010E948C02F701808362E4CE010E9418
:100730008C02F701818380E004C00150110921F788
:1007400083E0DF91CF911F910F91FF90EF90DF90A9
:10075000CF9008952F923F924F925F926F927F9227
:100760008F929F92AF92BF92CF92DF92EF92FF92C1
:100770000F931F93CF93DF93CDB7DEB7CD59D10938
:100780000FB6F894DEBF0FBECDBF413508F080C173
:10079000C956DF4F4883C759D0401B014C010E9406
:1007A0003A0D442443942BE830E02C0F3D1F295F81
:1007B0003F4FC856DF4F39832883C859D0408BE854
:1007C00090E08C0F9D1F0696C656DF4F9983888355
:1007D000CA59D040EBE8F0E0EC0FFD1F3296C4564A
:1007E000DF4FF983E883CC59D040F2E04F16D9F0BF
:1007F00023E0421671F131E043124DC183E9C55740
:10080000DF4F8883CB58D040C956DF4F8881C75906
:10081000D040882339F181E0F1019081953008F4CE
:1008200080E0512C24C0F5E9C557DF4FF883CB5841
:10083000D040C956DF4F2881C759D0402223A1F0AC
:1008400081E0F1019081983008F480E093E0592E26
:100850000EC087E9C557DF4F8883CB58D04006E0EC
:10086000502E04C0512C02C013E0512E80E0C95616
:10087000DF4FD880C759D040F8E05F9ED0181124D0
:10088000D7FCD12C882341F098E8C357DF4F9883D9
:10089000CD58D04033E001C032E021E09D2D97706B
:1008A00009F420E09D2D959595959595290F31F4A6
:1008B000882309F4BEC028E0D20EBBC0882311F003
:1008C00093E001C094E0291708F4922FE52DF0E0A1
:1008D0003196E20DF31D232F4191ABE8B0E0AC0F50
:1008E000BD1FA20FB11D4C932F5F422F431B491711
:1008F00098F3DECF81118DC23FE13D150CF4CEC0DF
:10090000F0E2DF2E80E7C457DF4F8883CC58D04019
:10091000C357DF4F9881CD58D040C257DF4F8881F1
:10092000CE58D0408927C157DF4F9881CF58D0404B
:100930008927C057DF4F9881C059D0408927CF56AB
:10094000DF4F8883C159D040C856DF4F2881398195
:10095000C859D04047E0BE0165577F4FC4010E948F
:100960005E038111D1C0CB56DF4F1882C559D040EC
:1009700093E0CA56DF4F9883C659D040C656DF4F22
:1009800068807980CA59D040B9E0BB2ECB56DF4F82
:10099000C880C559D0404C2D4295407F4C0D6AE12E
:1009A000C4010E94AA02A12C9E012B563F4F79013F
:1009B0008E010A561F4F93014B2DBE0165577F4F85
:1009C000C4010E94290CB82E32E0831393CF6CE14E
:1009D000C4010E948C0285FD1CC28F7109F480E263
:1009E000282F30E04D2DDD0C550B421753070CF02E
:1009F00052C0D82EC9010197877099272595259552
:100A0000259531E0320F21E0811101C020E0230F54
:100A1000EBE8F0E0EC0FFD1FE20FF11D21E030E00C
:100A200002C0220F331F8A95E2F7C9019081892BFA
:100A300080833FE13D150CF465CF9D2D9770CB561B
:100A4000DF4F9883C559D0408D2D85958595859527
:100A50008E5F292FE0E18E9F200D1124C457DF4FB8
:100A60002883CC58D04021E0911101C020E0B22E63
:100A7000B80EABE86A2E712C6C0E7D1E680E711CD0
:100A8000F9E0F81BCA56DF4FF883C659D0407ECF35
:100A900026E0B22EBEC195E0B92EBBC1C357DF4FD1
:100AA0008881CD58D040883889F182E094E0E52DE6
:100AB000F0E03196E20DF31D980FABE8B0E0AC0F1B
:100AC000BD1FA80FB11D2C9121938F5F8913F5CF06
:100AD000CA56DF4F8881C659D040833009F094C18F
:100AE000CB56DF4F8881C559D04081118DC1C45686
:100AF000DF4F28813981CC59D04041E0B301C40196
:100B00000E945E03882329F0B82E83C183E093E01E
:100B1000CECFC357DF4F9881CD58D040F3018181AC
:100B2000981375C1C257DF4F9881CE58D04082814B
:100B300098136DC1808182FF02C0439456CEF101AB
:100B40008387942D990F490E43944082847280329A
:100B500009F05FC180E4CC56DF4F8883C459D04090
:100B60003E01FBE46F0E711CF30111928A95E9F7C7
:100B700080EEF301808380E5818393012E5F3F4FF8
:100B800042E0B301C4010E945E038111BBC0AA24EC
:100B9000A394C12CE12CF12C8E010C561F4F930114
:100BA00044E0B301C4010E94290CD82E8823D9F057
:100BB00080E589831A829E012D5F3F4F42E0BE018E
:100BC0006F5F7F4FC4010E945E0381110CC0A12C96
:100BD00000E010E020E030E044E0BE016F5F7F4FB6
:100BE000C4010E94290CF30180818983823008F4BA
:100BF0006EC0418181E0242F207446FF80E08B830A
:100C000081E0942F907245FF80E08F8344FB88271A
:100C100080F98A87E42FEF704E2F50E0483051055D
:100C2000A8F4FA01EC5CFF4F0C947F1480E10DC036
:100C300088E10BC080E209C088E207C080E305C0FC
:100C400080E403C080E601C080E88A832223B1F0FB
:100C5000F3018281282F221F2227221F2C83282F75
:100C6000207730E0E4E035952795EA95E1F72D838C
:100C700087708E83992391F083E005C01D821E82C8
:100C8000992361F082E0F301E80FF11D8081982F34
:100C900092959F7098878F70898702C018861986F1
:100CA0008A858823F1F08B81811102C082E001C026
:100CB00083E09F8191118F5FF301E80FF11D808127
:100CC00081FB992790F99B8781708C870DC01B82CF
:100CD0001F821A8680E28A831C821D821E821886E9
:100CE000198681E08B871C86CC56DF4F4881C4591A
:100CF000D04050E042505109B301CE010D960E9400
:100D0000791601C0D82ED11084C08981882309F4B6
:100D100080C08B81882309F47CC08D818170D82E9E
:100D20002E812170322E85E0CC56DF4F8883C45946
:100D3000D04080EDF301808381E181834D2C512CE3
:100D4000C201880F991F880F991F822B82839301FC
:100D50002D5F3F4F43E0B301C4010E945E03811148
:100D600058C0AA24A394C12CE12CF12C8E010C565E
:100D70001F4F930145E0B301C4010E94290C81116A
:100D800048C0CC56DF4F8881C459D040833009F029
:100D900040C0F3018081803DE1F564E2C4010E941E
:100DA0008C02182F66E2C4010E948C02412F4F78FA
:100DB000232D30E054E0220F331F5A95E1F72068CD
:100DC000422B920164E0220F331F6A95E1F7922FC4
:100DD00090688F78192F182B64E2C4010E94AA0230
:100DE000412F407F66E2C4010E94AA02DA1002C0CD
:100DF00045E101C046E268E4C4010E94AA0283E220
:100E000090E00197F1F705C0BB24B39402C087E0DE
:100E1000B82E8B2DC356DF4F0FB6F894DEBF0FBE32
:100E2000CDBFDF91CF911F910F91FF90EF90DF9099
:100E3000CF90BF90AF909F908F907F906F905F907A
:100E40004F903F902F9008952F923F924F925F9234
:100E50006F927F928F929F92AF92BF92CF92DF92CA
:100E6000EF92FF920F931F93CF93DF93CDB7DEB72F
:100E70002C970FB6F894DEBF0FBECDBF413508F0FA
:100E800004C1342E3B014C010E943A0D22242394CC
:100E900032E0231691F083E02816E1F091E0291268
:100EA000F6C083E989833320D1F081E0F30190819A
:100EB000953008F480E0B12C17C0F5E9F9833320B0
:100EC00081F081E0F3019081983008F480E043E004
:100ED000B42E0AC087E9898336E0B32E04C0B12C52
:100EE00002C023E0B22E80E0D32CF8E0BF9ED018E1
:100EF0001124D7FCD12C882321F098E89B8333E080
:100F000001C032E021E09D2D977009F420E09D2D75
:100F1000959595959595290F31F4882309F492C0FC
:100F200038E0D30E8FC0811102C094E001C093E07D
:100F3000291708F4922FEB2DF0E03196E60DF71DFE
:100F4000232F4191A1E0B0E0AC0FBD1FA20FB11D56
:100F50004C932F5F422F431B491798F3DECF81112B
:100F6000DEC09FE19D150CF494C080E2D82E90E77E
:100F70009A839B818C8189279D8189279E818927DE
:100F80008F839E01285F3F4F47E0BE016F5F7F4F19
:100F9000C4010E945E038111A3C01A86E3E0EB87BF
:100FA000CE0107962C0199E09C87CA844C2D42956E
:100FB000407F4C0D6AE1C4010E94AA02A12CCE011F
:100FC0000A967C018E01055F1F4F92014C85BE0180
:100FD0006F5F7F4FC4010E94290C182F823009F0E7
:100FE000BECF6CE1C4010E948C0285FD98C08F7158
:100FF00009F480E2282F30E04D2DDD0C550B42170F
:1010000053070CF044C0D82E85958595859591E0C1
:10101000980F422F477081E009F480E0890FE1E0EA
:10102000F0E0EC0FFD1FE80FF11D21503109277092
:10103000332781E090E001C0880F2A95EAF790817C
:10104000892B80838FE18D150CF491CF9D2D9770A6
:101050009A878D2D8595859585958E5F292FE0E161
:101060008E9F200D11242A8321E0911101C020E0E0
:10107000280F2C8744244394512C4C0E5D1E480E9F
:10108000511CF9E0F81BFB8790CF16E048C015E033
:1010900046C08B81883809F43FC082E094E0EB2D94
:1010A000F0E03196E60DF71D980FA1E0B0E0AC0F2F
:1010B000BD1FA80FB11D2C9121938F5F8913F5CF10
:1010C0008B85833029F58A85811122C09E012D5F91
:1010D0003F4F41E0B201C4010E945E03882311F03A
:1010E000182F1DC09B81F2018181981313C09C8130
:1010F000828198130FC0808182FF02C02394C8CEE2
:10110000F3018387822D880F820D8F5F808307C054
:1011100011E005C017E003C083E093E0C0CF812F4A
:101120002C960FB6F894DEBF0FBECDBFDF91CF91E6
:101130001F910F91FF90EF90DF90CF90BF90AF90F5
:101140009F908F907F906F905F904F903F902F90E7
:10115000089520E040E00C94AD08FF920F931F9398
:10116000CF93DF93EC01162F042FF22E8C81811187
:101170004CC081E08C83E881F9810084F185E02D09
:10118000CE01099521E040E063E0CE010E94AD0868
:101190008FE991E40197F1F700C0000021E040E001
:1011A00063E0CE010E94AD0887E592E00197F1F778
:1011B00000C0000021E040E063E0CE010E94AD08E5
:1011C00021E040E062E0CE010E94AD0868E2CE017D
:1011D0000E94A90868E0CE010E94A9081D8261E072
:1011E000CE010E94A9088FE39FE10197F1F700C0AB
:1011F000000066E0CE010E94A90882E08E836CE0C8
:10120000CE010E94A90884E08D83E881F9810284DF
:10121000F385E02D2F2D402F612FCE01099595EC00
:101220009A95F1F70000DF91CF911F910F91FF90F8
:10123000089520E041E00E94AD0881E090E008952B
:10124000CF92DF92EF92FF920F931F93CF93DF9392
:101250007C018A01EB016B01C40ED51ECC15DD05A6
:1012600039F0699120E041E0C7010E94AD08F6CF56
:10127000C801DF91CF911F910F91FF90EF90DF9008
:10128000CF900895FC01538D448D252F30E0842F9D
:1012900090E0821B930B541710F0CF96089501979E
:1012A0000895FC01918D828D981761F0828DDF0188
:1012B000A80FB11D5D968C91928D9F5F9F73928F49
:1012C00090E008958FEF9FEF0895FC01918D828D3E
:1012D000981731F0828DE80FF11D858D90E008950B
:1012E0008FEF9FEF08958AEE91E00E94950021E034
:1012F000892B09F420E0822F0895EF92FF920F933B
:101300001F93CF93DF93EC0181E0888F9B8D8C8DB1
:10131000981305C0E889F989808185FD26C0F62EDD
:101320000B8D10E00F5F1F4F0F731127E02E8C8D78
:10133000E8120CC00FB607FCFACFE889F989808162
:1013400085FFF5CFCE010E940601F1CF8B8DFE0106
:10135000E80FF11DE35AFF4FF0829FB7F8940B8F0F
:10136000EA89FB89808180620AC09FB7F894EE8980
:10137000FF896083E889F989808183708064808334
:101380009FBF81E090E0DF91CF911F910F91FF907F
:10139000EF900895CF93DF93EC01888D8823C9F0F7
:1013A000EA89FB89808185FD05C0A889B9898C916E
:1013B00086FD0FC00FB607FCF5CF808185FFF2CF09
:1013C000A889B9898C9185FFEDCFCE010E940601D5
:1013D000E7CFDF91CF9108951F920F920FB60F9232
:1013E00011242F933F934F935F936F937F938F932A
:1013F0009F93AF93BF93EF93FF938AEE91E00E9488
:101400000601FF91EF91BF91AF919F918F917F91D5
:101410006F915F914F913F912F910F900FBE0F9061
:101420001F9018951F920F920FB60F9211242F93B1
:101430008F939F93EF93FF93E091FA01F091FB015B
:101440008081E0910002F091010282FD12C0908142
:10145000809103028F5F8F7320910402821751F0F5
:10146000E0910302F0E0E651FE4F958F8093030276
:1014700001C08081FF91EF919F918F912F910F90EB
:101480000FBE0F901F9018950F931F93CF93DF936C
:101490008C01C62F6170FC0181850E945101D0E052
:1014A000BE01759567956170F80182850E945101B2
:1014B000BE0175956795759567956170F80183858F
:1014C0000E94510123E0D595C7952A95E1F76C2F2D
:1014D0006170F80184850E94510161E0F801808506
:1014E0000E945101F5E0FA95F1F7000060E0F80183
:1014F00080850E945101F5E0FA95F1F70000DF9137
:10150000CF911F910F910895EF92FF920F931F9328
:10151000CF93DF936115710511F480E01CC0411574
:101520005105C1F07B01EC018C819D818A01080F7E
:10153000191FB801CE010E94D10D882371F32881B3
:1015400039818C819D81B701820F931F0E948B1678
:101550001D830C8381E0DF91CF911F910F91FF904C
:10156000EF900895DF92EF92FF920F931F93CF9326
:10157000DF938C01F62ED42EE52E83E590E00E94B9
:10158000890260E0F80186850E94510182E10E9493
:101590008202CD2DDE2DCE018F0D911D7C01EC162A
:1015A000FD0621F089910E948202F9CF61E0F801E5
:1015B00086850E945101DF91CF911F910F91FF907D
:1015C000EF90DF900C9481022F923F924F925F92A6
:1015D0007F928F929F92AF92BF92CF92DF92EF92C3
:1015E000FF920F931F93CF93DF93CDB7DEB72C9766
:1015F0000FB6F894DEBF0FBECDBF8C0161E087E867
:1016000092E00E94A9088FE39FE10197F1F700C0E3
:101610000000B801CE0101960E94470EF090300400
:10162000E0903104CD80DE80CE0101960E94420E12
:10163000FE9CC00111248C159D0508F4C6C06DE305
:1016400071E0CE0107960E94500EF12CE12C8090A3
:10165000060190900701A0900801B0900901F801DF
:1016600044815581D09031048D2D90E04817590761
:1016700088F12F2D30E0820F931F8417950740F0DB
:10168000DA94C9018D0D911D84179507C8F7F801EB
:10169000608171816115710599F3FB01E80FF91FF4
:1016A0008081803269F72D0D311D40E050E0B80196
:1016B000CE0101960E94650EBE016F5F7F4FCE0185
:1016C00007960E94970DCE0101960E94420EF39458
:1016D000FD0C0AC0B801CE0107960E942B0EF8013E
:1016E000848195810196F80E772473947E0C609125
:1016F000310470E061507109072E000C880B990BC2
:101700000E945B1220E030E040E05FE30E9496120E
:101710001B012C016B857C856150710980E090E094
:101720000E94591220E030E040E05FE30E949612F0
:101730009B01AC01C201B1010E948B130E94F813FE
:1017400089829A82AB82BC822E2D243008F023E05D
:10175000CC24C394D12CCC0EDD1EC20ED11C0E9411
:101760000F14F6018081680F87E892E00E94A908B3
:10177000F5ECFA95F1F700004B855C856F81788573
:1017800087E892E00E942009F801248135814F2DDD
:1017900050E0B801CE0101960E94650EBE016F5F58
:1017A0007F4FC8010E94970DCE0101960E94420E04
:1017B000F80184819581892B11F0E72C50CFCE015F
:1017C00007960E94420E81E001C080E02C960FB681
:1017D000F894DEBF0FBECDBFDF91CF911F910F9167
:1017E000FF90EF90DF90CF90BF90AF909F908F9041
:1017F0007F905F904F903F902F9008950895CF92E3
:10180000DF92EF92FF920F931F93CF93DF936C01C0
:101810007A018B01C0E0D0E0CE15DF0581F0D80160
:101820006D918D01D601ED91FC910190F081E02D3B
:10183000C6010995892B11F02196EECF7E01C701D3
:10184000DF91CF911F910F91FF90EF90DF90CF909C
:1018500008954F925F926F927F928F929F92AF9274
:10186000BF92CF92DF92EF92FF920F931F93CF938D
:10187000DF9300D0CDB7DEB74C012B01D42E390158
:10188000E114F10419F0F701408101C040E0B42EE9
:10189000F0E1CF9EB00C112440E062E0C4010E9450
:1018A000AA024FE768E0C4010E94AA0240E864E18E
:1018B000C4010E94AA02A2016D2DC4010E94B20AB5
:1018C0004B2D6AE1C4010E94AA024CE062E0C4010F
:1018D0000E94AA026AE1C4010E948C02482F40685B
:1018E0006AE1C4010E94AA0280ED482E87E0582ECA
:1018F00068E0C4010E948C02982F907341F480FD2F
:1019000004C081E0481A510899F783E0A0C06CE058
:10191000C4010E948C02D82E837109F095C0611415
:10192000710409F45AC00115110509F456C064E1A7
:10193000C4010E948C02B82EF80180818B1508F436
:101940007DC0B082BB20F1F183E590E00E94890266
:1019500060E0F40186850E945101BA9482E90E94F8
:101960008202CC20A9F08FEF90E02C0101C0440C42
:10197000CA94EAF782E90E948202242D2095F3019D
:10198000908192238421892B8083CC24C39401C02D
:10199000C12C4C2C512C460C571CCB1438F482E92A
:1019A0000E948202F2018083C394F3CF80E00E9400
:1019B0008202F201808361E0F40186850E94510178
:1019C0000E94810268E1C4010E948C028770E114C8
:1019D000F10421F0F701808301C080E0D3FC30C026
:1019E0006114710479F10115110561F1AA2051F119
:1019F000F8014081413021F4843041F58FEF27C058
:101A0000423020F1811122C042509E012F5F3F4F92
:101A1000B301C4010E945E03811119C0F8018081E5
:101A2000680E711CF30132979081898198130EC062
:101A3000319690818A81981309C004C084E007C060
:101A400082E005C080E003C081E001C087E00F9024
:101A50000F90DF91CF911F910F91FF90EF90DF904A
:101A6000CF90BF90AF909F908F907F906F905F903E
:101A70004F900895CF93DF93EC016CE10E948C02AC
:101A8000482F4F776CE1CE01DF91CF910C94AA02E1
:101A90004F925F926F927F928F929F92AF92CF926E
:101AA000EF92FF920F931F93CF93DF9300D0CDB7A8
:101AB000DEB726E22A836115710529F1FA0120813A
:101AC000223008F14A012B013C010E943A0D87E0C7
:101AD0008983A12CC12CCE0101967C018401920145
:101AE00041E0BE016E5F7F4FC3010E94290C81114E
:101AF0000DC0F4018081823041F481E0998191111F
:101B000005C080E003C084E001C081E00F900F9029
:101B1000DF91CF911F910F91FF90EF90CF90AF90F9
:101B20009F908F907F906F905F904F9008950F934C
:101B30001F93CF93DF938C01EB01FC018081918196
:101B4000009739F06881798161157105A1F40E94CF
:101B50001D1588819981F801918380838A819B81F9
:101B6000938382838C819D819583848319821882DB
:101B70001B821A820FC0F801428153812C813D8162
:101B80004217530720F30E948B168C819D81F80128
:101B9000958384831D821C82DF91CF911F910F91C9
:101BA00008950F931F93CF93DF93EC018881998160
:101BB000009729F02A813B812617370788F48B018B
:101BC0006F5F7F4F0E94A615009761F0998388830D
:101BD0001B830A832C813D81232B11F4FC0110828D
:101BE00081E001C080E0DF91CF911F910F910895B6
:101BF000CF93DF93EC0188819981009711F00E94C7
:101C00001D15198218821D821C821B821A82DF9187
:101C1000CF910895EF92FF920F931F93CF93DF938D
:101C2000EC017B018A01BA010E94D10D811104C02F
:101C3000CE010E94F80D07C01D830C83B701888177
:101C400099810E948B16CE01DF91CF911F910F9148
:101C5000FF90EF900895CF93DF93EC01FB0186177F
:101C6000970761F0608171816115710529F04481E8
:101C700055810E940A0E02C00E94F80DCE01DF912C
:101C8000CF910895FC01808191810C941D15FC0178
:101C90001182108213821282158214820C942B0EF0
:101CA000FC01118210821382128215821482611546
:101CB000710551F0FB0101900020E9F73197AF0168
:101CC000461B570B0C940A0E0895BF92CF92DF92D9
:101CD000EF92FF920F931F93CF93DF937C016B01E1
:101CE000EA0189012417350720F48D2FE901042F1B
:101CF000182F6DE371E0C7010E94500ED6011496B3
:101D00008D919C911597C817D90740F580179107B9
:101D100008F48C01D601ED91FC911197E00FF11FB1
:101D2000B08010826D917C916C0F7D1F61157105E3
:101D300061F0FB0101900020E9F73197AF01461BEC
:101D4000570BC7010E940A0E03C0C7010E94F80D7D
:101D5000D601ED91FC91E00FF11FB082C701DF9138
:101D6000CF911F910F91FF90EF90DF90CF90BF9098
:101D70000895CF93DF9383E093E0892BF1F48DEF07
:101D800092E00E94420E82E394E00E94420E88E3B9
:101D900094E00E94420E8EE394E00E94420E84E49E
:101DA00094E00E94420E8AE494E00E94420E80E594
:101DB00094E0DF91CF910C94420EC0E0D0E0CE01D0
:101DC000875D9B4F0E94420E2697C43D8EEFD80739
:101DD000B1F7D5CFCF93DF93CDB7DEB7AD970FB6C1
:101DE000F894DEBF0FBECDBF789484B5826084BD09
:101DF00084B5816084BD85B5826085BD85B581600F
:101E000085BD80916E00816080936E00109281008C
:101E10008091810082608093810080918100816047
:101E20008093810080918000816080938000809108
:101E3000B10084608093B1008091B0008160809394
:101E4000B00080917A00846080937A0080917A005B
:101E5000826080937A0080917A00816080937A001A
:101E600080917A00806880937A001092C100E0919E
:101E7000FA01F091FB0182E08083E091F601F0919C
:101E8000F7011082E091F801F091F9018FEC808365
:101E900010920202E091FE01F091FF0186E0808342
:101EA000E091FC01F091FD01808180618083E091EF
:101EB000FC01F091FD01808188608083E091FC014C
:101EC000F091FD01808180688083E091FC01F091B8
:101ED000FD0180818F7D808319A286E388A3BE01E6
:101EE000605E7F4FFB0101900020E9F73197AF0161
:101EF000461B570B8AEE91E00E94FF0B42E050E038
:101F00006BE371E08AEE91E00E94FF0B1FB7F8943B
:101F10008091E901811127C0E0EAF0E08491E4EBCF
:101F2000F0E09491E82FF0E0EE0FFF1FEE57FF4F27
:101F3000A591B491EC91E92321F461E08AE00E943B
:101F4000510161E08AE00E9480018CB580618CBD06
:101F50008CB580648CBD61E08DE00E94800161E001
:101F60008BE00E9480018091E9018F5F8093E901FD
:101F70001FBF62E374E08E010F5F1F4FC8010E9414
:101F8000470EC8010E94E40AC8010E94420E61E0A7
:101F90008091A2020E94800161E08091A2020E94D1
:101FA00051018091A3028F3F49F44FE062E084E940
:101FB00092E00E94AA0233E0F32E26C060E00E9465
:101FC00080012091A30230E0F901E254FF4F849197
:101FD000F901E655FF4FE490F901EA56FF4FF490FE
:101FE000FF2001F181110E942801EF2DF0E0EE0F9A
:101FF000FF1FE457FF4FA591B491EC91EE2291F0B1
:10200000D4CFFA94FF2039F162E370E080E090E0F1
:102010000E94FD0162E084E992E00E948C0284FF4C
:102020001AC0EFCF61E08091A3020E94800160E0BE
:102030008091A3020E94510183E090E00197F1F7A3
:1020400061E08091A3020E94510162E370E080E0B0
:1020500090E00E94FD0140E064E284E992E00E9489
:10206000AA0240E066E284E992E00E94AA0246E207
:1020700068E484E992E00E94AA0240E864E584E909
:1020800092E00E94AA0249EA66E584E992E00E9491
:10209000AA0243E068E584E992E00E94AA0248EEC1
:1020A0006AE584E992E00E94AA0240E46AE284E9D7
:1020B00092E00E94AA024DE362E284E992E00E946B
:1020C000AA0268E284E992E00E948C02982F937041
:1020D000933039F0482F436068E284E992E00E942F
:1020E000AA0296E0792E84E992E00E94C702882332
:1020F00009F4C1C084E992E00E94E500982E8111A4
:10210000BDC0B9C08F2D90E09C0129573D4F69019A
:10211000F9018089803108F4B9C069E371E0C80130
:102120000E94500E4D815E8169817A81CE01889630
:102130000E94840AC8010E94420EF60180891BA2F7
:102140001AA21DA21CA21FA21EA240E1B80190E08B
:102150000E942F12F80101900020E9F73197AF019A
:10216000401B510BB801CE0182960E940A0E4EA16F
:102170005FA16AA17BA1CE0188960E94840ACE014C
:1021800082960E94420EF39480919602F81608F40B
:10219000B9CFE8A4F9A4E114F10409F07AC0BE01B2
:1021A000685D7F4FCE0182960E94470E6AE474E01C
:1021B000C8010E94470EC8010E94E40AC8010E949B
:1021C000420E60ED77E080E090E00E94FD016090BB
:1021D0002F04AEA0BFA0CAA0DBA083E0E82E83E05E
:1021E000F82E812C681409F484C0F701848195814C
:1021F0008A159B0509F078C080819181009709F0CC
:1022000056C0C114D10409F056C0CE0182960E9476
:10221000420E911070C080912F0491E0980F90931E
:102220002F04789EC0011124BE01685D7F4F8D5F31
:102230009C4F0E942B0E64E474E0C8010E94470E7C
:10224000C8010E94E40AC8010E94420E68EB7BE0CC
:1022500080E090E00E94FD0162E374E0C8010E940A
:10226000470EC8010E94E40AC8010E94420ECE0136
:1022700088960E94420E0E94A10035CF6DE371E066
:10228000CE0188960E94500EF12C7ECF66E371E05D
:1022900046CFF7018081882309F481CF082E000CF6
:1022A000990B0E947116F70181937F01F2CFC1143F
:1022B000D104A1F40BC0A114B10409F4A6CFF60116
:1022C000808190E09195819591090BC0A114B10492
:1022D00009F49BCFFC01808190E003C0B6010E940D
:1022E0008216892B09F491CF8394F6E0EF0EF11C4E
:1022F00079CF912C8ACF68E374E09FCFCF93DF939F
:102300001092ED011092EC0188EE93E0A0E0B0E0B5
:102310008093EE019093EF01A093F001B093F1014F
:102320008EE091E09093EB018093EA0185EC90E0E0
:102330009093F7018093F60184EC90E09093F9017B
:102340008093F80180EC90E09093FB018093FA0178
:1023500081EC90E09093FD018093FC0182EC90E091
:102360009093FF018093FE0186EC90E09093010230
:102370008093000210920302109204021092050250
:10238000109206026EE371E080E594E00E94500E28
:1023900062E871E08AE494E00E94500E67E971E01F
:1023A00084E494E00E94500E6AEA71E08EE394E0C7
:1023B0000E94500E6BEB71E088E394E00E94500E97
:1023C0006EEC71E082E394E00E94500E10928A025B
:1023D0001092890210928B028AE291E09093880217
:1023E0008093870287E080938E0286E080938F023D
:1023F00085E08093900284E08093910283E0809353
:10240000920282E0809393028AE08093A20289E0A4
:102410008093A30280E291E09093950280939402CE
:102420006DE371E08DEF92E00E94500EC0E0D0E0CD
:102430006DE371E0CE018D5F9C4F0E94500E269699
:10244000CC3281E0D807A1F710922F0482E080936C
:10245000300480E180933104DF91CF910895BB2750
:10246000FB015527AA27880F991FAA1FA41710F050
:10247000A41B83955051B9F7A05DAA3308F0A95D5C
:10248000A193009779F7B111B1931192CB010C94FC
:102490004912DC01FC01672F71917723E1F7329734
:1024A00004C07C916D9370836291AE17BF07C8F32F
:1024B0000895E89409C097FB3EF490958095709537
:1024C00061957F4F8F4F9F4F9923A9F0F92F96E980
:1024D000BB279395F695879577956795B795F111F5
:1024E000F8CFFAF4BB0F11F460FF1BC06F5F7F4F92
:1024F0008F4F9F4F16C0882311F096E911C07723A4
:1025000021F09EE8872F762F05C0662371F096E8AC
:10251000862F70E060E02AF09A95660F771F881F7B
:10252000DAF7880F9695879597F908950E94A91272
:102530000C941A130E940C1338F00E94131320F00D
:10254000952311F00C9403130C94091311240C948B
:102550004E130E942B1370F3959FC1F3950F50E01B
:10256000551F629FF001729FBB27F00DB11D639F45
:10257000AA27F00DB11DAA1F649F6627B00DA11DEB
:10258000661F829F2227B00DA11D621F739FB00D91
:10259000A11D621F839FA00D611D221F749F332701
:1025A000A00D611D231F849F600D211D822F762F9A
:1025B0006A2F11249F5750409AF0F1F088234AF077
:1025C000EE0FFF1FBB1F661F771F881F91505040E3
:1025D000A9F79E3F510580F00C9403130C944E1301
:1025E0005F3FE4F3983ED4F3869577956795B7956A
:1025F000F795E7959F5FC1F7FE2B880F911D969584
:10260000879597F9089597F99F6780E870E060E0F3
:1026100008959FEF80EC089500240A94161617067B
:1026200018060906089500240A94121613061406C3
:1026300005060895092E0394000C11F4882352F026
:10264000BB0F40F4BF2B11F460FF04C06F5F7F4FDE
:102650008F4F9F4F089557FD9058440F551F59F0C5
:102660005F3F71F04795880F97FB991F61F09F3F7F
:1026700079F087950895121613061406551FF2CFA8
:102680004695F1DF08C0161617061806991FF1CFF8
:1026900086957105610508940895E894BB2766271F
:1026A0007727CB0197F908952F923F924F925F922F
:1026B0006F927F928F929F92AF92BF92CF92DF9252
:1026C000EF92FF920F931F93CF93DF93CDB7DEB7B7
:1026D000CA1BDB0B0FB6F894DEBF0FBECDBF09944B
:1026E0002A88398848885F846E847D848C849B84A2
:1026F000AA84B984C884DF80EE80FD800C811B81B0
:10270000AA81B981CE0FD11D0FB6F894DEBF0FBEDE
:10271000CDBFED0108955058BB27AA270E94A313EF
:102720000C941A130E940C1338F00E94131320F01B
:1027300039F49F3F19F426F40C9409130EF4E09534
:10274000E7FB0C940313E92F0E942B1358F3BA17DD
:10275000620773078407950720F079F4A6F50C94B7
:102760004D130EF4E0950B2EBA2FA02D0B01B901DD
:1027700090010C01CA01A0011124FF27591B99F0F7
:10278000593F50F4503E68F11A16F040A22F232F03
:10279000342F4427585FF3CF469537952795A79553
:1027A000F0405395C9F77EF41F16BA0B620B730BFA
:1027B000840BBAF09150A1F0FF0FBB1F661F771F6B
:1027C000881FC2F70EC0BA0F621F731F841F48F420
:1027D000879577956795B795F7959E3F08F0B0CFA9
:1027E0009395880F08F09927EE0F97958795089590
:1027F0000E94671490F09F3748F4911116F40C94DE
:102800004E1360E070E080E89FE3089526F01B1609
:10281000611D711D811D0C943E140C9459140E946D
:10282000331388F09F5798F0B92F9927B751B0F01C
:10283000E1F0660F771F881F991F1AF0BA95C9F744
:1028400014C0B13091F00E944D13B1E008950C9482
:102850004D13672F782F8827B85F39F0B93FCCF335
:10286000869577956795B395D9F73EF490958095C1
:10287000709561957F4F8F4F9F4F0895882371F416
:10288000772321F09850872B762F07C0662311F409
:1028900099270DC09051862B70E060E02AF09A9540
:1028A000660F771F881FDAF7880F9695879597F937
:1028B00008959F3F31F0915020F487957795679563
:1028C000B795880F911D9695879597F908950E9461
:1028D0003313A0F0BEE7B91788F4BB279F3860F424
:1028E0001616B11D672F782F8827985FF7CF86952A
:1028F00077956795B11D93959639C8F30895EE0FB6
:10290000FF1F0590F491E02D09940F931F93CF932F
:10291000DF938230910510F482E090E0E09158045A
:10292000F091590420E030E0A0E0B0E0309719F1D8
:10293000408151810281138148175907C8F08417DB
:10294000950769F4109731F012960C93129713962D
:102950001C9327C0009358041093590422C02115DA
:10296000310519F04217530718F49A01BD01EF0120
:10297000DF01F801DBCF21153105F9F0281B390BF8
:102980002430310580F48A819B816115710521F025
:10299000FB019383828304C090935904809358046D
:1029A000FE01329644C0FE01E20FF31F8193919322
:1029B00022503109398328833AC02091560430913E
:1029C0005704232B41F420910201309103013093ED
:1029D00057042093560420910001309101012115E4
:1029E000310541F42DB73EB74091040150910501E6
:1029F000241B350BE0915604F0915704E217F307BE
:102A0000A0F42E1B3F0B2817390778F0AC014E5F5E
:102A10005F4F2417350748F04E0F5F1F5093570440
:102A2000409356048193919302C0E0E0F0E0CF011F
:102A3000DF91CF911F910F910895CF93DF9300976E
:102A400009F481C0FC01329713821282A0915804CC
:102A5000B0915904109781F420813181820F931F26
:102A600020915604309157042817390751F5F093F7
:102A70005704E093560467C0ED0120E030E0CE1724
:102A8000DF0740F44A815B819E0141155105F1F059
:102A9000EA01F5CFD383C28340815181840F951F12
:102AA000C817D90759F488819981840F951F029618
:102AB000918380838A819B81938382832115310551
:102AC00029F4F0935904E09358043DC0E901FB83D5
:102AD000EA8349915991C40FD51FEC17FD0761F4A2
:102AE00080819181840F951F0296E90199838883E3
:102AF000828193819B838A83E0E0F0E012968D913E
:102B00009C911397009719F0FD01DC01F7CF8D918F
:102B10009C9111979D012E5F3F4F820F931F209133
:102B20005604309157042817390769F4309729F46F
:102B3000109259041092580402C013821282B0936A
:102B40005704A0935604DF91CF910895A0E0B0E020
:102B5000ECEAF5E10C945813EC01009721F4CB0159
:102B60000E948514B4C0FC01E60FF71F9C0122509F
:102B70003109E217F30708F4A8C0D9010D911C919F
:102B8000119706171707B0F00530110508F49BC020
:102B9000C80104978617970708F495C002501109D9
:102BA000061B170B019311936D937C93CF010E9429
:102BB0001D1589C05B01A01AB10A4C01800E911E3F
:102BC000A0915804B0915904612C712CE12CF12C86
:102BD000109709F446C08D919C911197A815B905DD
:102BE000B1F56C0142E0C40ED11CCA14DB0478F1CB
:102BF0004C018A189B08640142E0C40ED11C129655
:102C0000BC9012971396AC91B5E0CB16D10440F06E
:102C1000B282A38391828082D9016D937C9309C093
:102C20000E5F1F4F800F911FF90191838083EB2D61
:102C3000FA2FE114F10431F0D7011396FC93EE93CF
:102C4000129741C0F0935904E09358043CC06816B1
:102C5000790608F43C017D0112960D90BC91A02DDF
:102C6000B7CF809156049091570488169906E1F4E5
:102C700066167706C8F480910001909101010097D3
:102C800041F48DB79EB74091040150910501841B1A
:102C9000950BE817F907C8F4F0935704E09356042E
:102CA000F901718360830FC0CB010E9485147C0100
:102CB000009759F0A801BE010E947916CE010E942A
:102CC0001D15C70104C0CE0102C080E090E0CDB761
:102CD000DEB7EEE00C94741381E090E0F8940C946D
:102CE00092169111089581568A5108F480528558A0
:102CF0000895FB01DC0102C001900D92415050404B
:102D0000D8F70895FB01DC018D9101908019011025
:102D1000D9F3990B0895FB01DC0101900D9200207D
:102D2000E1F7089510E0CAE6D0E004C0FE010E9479
:0E2D30007F142196CB36D107C9F7F894FFCF58
:102D3E0000005A04800080C094D4000000007D0979
:102D4E00FF0B4209CA0995005109650900000000F0
:102D5E00AA03C702E5000000000019092009E000DF
:102D6E00FE0BF001BC0120300020000D0A00446172
:102D7E006E69204D6F63616E752076612075726588
:102D8E00617A61206F207A69206672756D6F61734A
:102D9E006121204D756C74756D696D2063612061C4
:102DAE00746920616C657320444D205472616E739A
:102DBE0021005365206369746573746520636172C5
:102DCE0064756C2E2E2E0043616C61746F72696592
:102DDE0020706C6163757461210056616C69646169
:102DEE0072652065737561746121004361726420A0
:102DFE0064656A612076616C69646174210041705A
:102E0E00726F70696174692063617264756C210000
:00000001FF
